{
  "_format": "hh-sol-artifact-1",
  "contractName": "FlightSuretyData",
  "sourceName": "contracts/FlightSuretyData.sol",
  "abi": [
    {
      "inputs": [
        {
          "internalType": "address",
          "name": "initialOwner",
          "type": "address"
        },
        {
          "internalType": "address",
          "name": "firstAirline",
          "type": "address"
        }
      ],
      "stateMutability": "nonpayable",
      "type": "constructor"
    },
    {
      "inputs": [],
      "name": "EnforcedPause",
      "type": "error"
    },
    {
      "inputs": [],
      "name": "ExpectedPause",
      "type": "error"
    },
    {
      "inputs": [
        {
          "internalType": "address",
          "name": "owner",
          "type": "address"
        }
      ],
      "name": "OwnableInvalidOwner",
      "type": "error"
    },
    {
      "inputs": [
        {
          "internalType": "address",
          "name": "account",
          "type": "address"
        }
      ],
      "name": "OwnableUnauthorizedAccount",
      "type": "error"
    },
    {
      "inputs": [],
      "name": "ReentrancyGuardReentrantCall",
      "type": "error"
    },
    {
      "anonymous": false,
      "inputs": [
        {
          "indexed": false,
          "internalType": "address",
          "name": "airline",
          "type": "address"
        }
      ],
      "name": "AirlineFunded",
      "type": "event"
    },
    {
      "anonymous": false,
      "inputs": [
        {
          "indexed": false,
          "internalType": "address",
          "name": "airline",
          "type": "address"
        }
      ],
      "name": "AirlineRegistered",
      "type": "event"
    },
    {
      "anonymous": false,
      "inputs": [
        {
          "indexed": false,
          "internalType": "address",
          "name": "contractAddress",
          "type": "address"
        }
      ],
      "name": "AuthorizedContract",
      "type": "event"
    },
    {
      "anonymous": false,
      "inputs": [
        {
          "indexed": false,
          "internalType": "address",
          "name": "contractAddress",
          "type": "address"
        }
      ],
      "name": "DeauthorizedContract",
      "type": "event"
    },
    {
      "anonymous": false,
      "inputs": [
        {
          "indexed": false,
          "internalType": "bytes32",
          "name": "flightKey",
          "type": "bytes32"
        },
        {
          "indexed": false,
          "internalType": "uint8",
          "name": "statusCode",
          "type": "uint8"
        }
      ],
      "name": "FlightRegistered",
      "type": "event"
    },
    {
      "anonymous": false,
      "inputs": [
        {
          "indexed": false,
          "internalType": "address",
          "name": "airline",
          "type": "address"
        },
        {
          "indexed": false,
          "internalType": "string",
          "name": "flight",
          "type": "string"
        },
        {
          "indexed": false,
          "internalType": "uint256",
          "name": "timestamp",
          "type": "uint256"
        },
        {
          "indexed": false,
          "internalType": "uint8",
          "name": "status",
          "type": "uint8"
        }
      ],
      "name": "FlightStatusInfo",
      "type": "event"
    },
    {
      "anonymous": false,
      "inputs": [
        {
          "indexed": false,
          "internalType": "bytes32",
          "name": "flightKey",
          "type": "bytes32"
        },
        {
          "indexed": false,
          "internalType": "uint8",
          "name": "statusCode",
          "type": "uint8"
        }
      ],
      "name": "FlightStatusUpdated",
      "type": "event"
    },
    {
      "anonymous": false,
      "inputs": [
        {
          "indexed": false,
          "internalType": "address",
          "name": "passenger",
          "type": "address"
        },
        {
          "indexed": false,
          "internalType": "uint256",
          "name": "amount",
          "type": "uint256"
        }
      ],
      "name": "InsuranceCredited",
      "type": "event"
    },
    {
      "anonymous": false,
      "inputs": [
        {
          "indexed": false,
          "internalType": "address",
          "name": "passenger",
          "type": "address"
        },
        {
          "indexed": false,
          "internalType": "bytes32",
          "name": "flightKey",
          "type": "bytes32"
        }
      ],
      "name": "InsurancePurchased",
      "type": "event"
    },
    {
      "anonymous": false,
      "inputs": [
        {
          "indexed": false,
          "internalType": "address",
          "name": "passenger",
          "type": "address"
        },
        {
          "indexed": false,
          "internalType": "uint256",
          "name": "amount",
          "type": "uint256"
        }
      ],
      "name": "InsuranceWithdrawn",
      "type": "event"
    },
    {
      "anonymous": false,
      "inputs": [
        {
          "indexed": false,
          "internalType": "address",
          "name": "oracle",
          "type": "address"
        }
      ],
      "name": "OracleRegistered",
      "type": "event"
    },
    {
      "anonymous": false,
      "inputs": [
        {
          "indexed": false,
          "internalType": "address",
          "name": "airline",
          "type": "address"
        },
        {
          "indexed": false,
          "internalType": "string",
          "name": "flight",
          "type": "string"
        },
        {
          "indexed": false,
          "internalType": "uint256",
          "name": "timestamp",
          "type": "uint256"
        },
        {
          "indexed": false,
          "internalType": "uint8",
          "name": "status",
          "type": "uint8"
        }
      ],
      "name": "OracleReport",
      "type": "event"
    },
    {
      "anonymous": false,
      "inputs": [
        {
          "indexed": false,
          "internalType": "uint8",
          "name": "index",
          "type": "uint8"
        },
        {
          "indexed": false,
          "internalType": "address",
          "name": "airline",
          "type": "address"
        },
        {
          "indexed": false,
          "internalType": "string",
          "name": "flight",
          "type": "string"
        },
        {
          "indexed": false,
          "internalType": "uint256",
          "name": "timestamp",
          "type": "uint256"
        }
      ],
      "name": "OracleRequest",
      "type": "event"
    },
    {
      "anonymous": false,
      "inputs": [
        {
          "indexed": true,
          "internalType": "address",
          "name": "previousOwner",
          "type": "address"
        },
        {
          "indexed": true,
          "internalType": "address",
          "name": "newOwner",
          "type": "address"
        }
      ],
      "name": "OwnershipTransferred",
      "type": "event"
    },
    {
      "anonymous": false,
      "inputs": [
        {
          "indexed": false,
          "internalType": "address",
          "name": "account",
          "type": "address"
        }
      ],
      "name": "Paused",
      "type": "event"
    },
    {
      "anonymous": false,
      "inputs": [
        {
          "indexed": false,
          "internalType": "address",
          "name": "account",
          "type": "address"
        }
      ],
      "name": "Unpaused",
      "type": "event"
    },
    {
      "stateMutability": "payable",
      "type": "fallback"
    },
    {
      "inputs": [],
      "name": "REGISTRATION_FEE",
      "outputs": [
        {
          "internalType": "uint256",
          "name": "",
          "type": "uint256"
        }
      ],
      "stateMutability": "view",
      "type": "function"
    },
    {
      "inputs": [
        {
          "internalType": "address",
          "name": "contractAddress",
          "type": "address"
        }
      ],
      "name": "authorizeContract",
      "outputs": [],
      "stateMutability": "nonpayable",
      "type": "function"
    },
    {
      "inputs": [
        {
          "internalType": "bytes32",
          "name": "flightKey",
          "type": "bytes32"
        }
      ],
      "name": "creditInsurees",
      "outputs": [],
      "stateMutability": "nonpayable",
      "type": "function"
    },
    {
      "inputs": [
        {
          "internalType": "address",
          "name": "contractAddress",
          "type": "address"
        }
      ],
      "name": "deauthorizeContract",
      "outputs": [],
      "stateMutability": "nonpayable",
      "type": "function"
    },
    {
      "inputs": [],
      "name": "fundAirline",
      "outputs": [],
      "stateMutability": "payable",
      "type": "function"
    },
    {
      "inputs": [],
      "name": "getAirlineCount",
      "outputs": [
        {
          "internalType": "uint256",
          "name": "",
          "type": "uint256"
        }
      ],
      "stateMutability": "view",
      "type": "function"
    },
    {
      "inputs": [
        {
          "internalType": "address",
          "name": "airline",
          "type": "address"
        }
      ],
      "name": "getAirlineInfo",
      "outputs": [
        {
          "components": [
            {
              "internalType": "bool",
              "name": "isRegistered",
              "type": "bool"
            },
            {
              "internalType": "bool",
              "name": "isFunded",
              "type": "bool"
            }
          ],
          "internalType": "struct FlightSuretyData.Airline",
          "name": "",
          "type": "tuple"
        }
      ],
      "stateMutability": "view",
      "type": "function"
    },
    {
      "inputs": [
        {
          "internalType": "bytes32",
          "name": "flightKey",
          "type": "bytes32"
        }
      ],
      "name": "getFlight",
      "outputs": [
        {
          "internalType": "string",
          "name": "name",
          "type": "string"
        },
        {
          "internalType": "uint256",
          "name": "datetime",
          "type": "uint256"
        },
        {
          "internalType": "string",
          "name": "origin",
          "type": "string"
        },
        {
          "internalType": "string",
          "name": "destination",
          "type": "string"
        },
        {
          "internalType": "bool",
          "name": "isRegistered",
          "type": "bool"
        },
        {
          "internalType": "uint8",
          "name": "statusCode",
          "type": "uint8"
        },
        {
          "internalType": "uint256",
          "name": "updatedTimestamp",
          "type": "uint256"
        },
        {
          "internalType": "address",
          "name": "airline",
          "type": "address"
        }
      ],
      "stateMutability": "view",
      "type": "function"
    },
    {
      "inputs": [],
      "name": "getInsuranceLimit",
      "outputs": [
        {
          "internalType": "uint256",
          "name": "",
          "type": "uint256"
        }
      ],
      "stateMutability": "pure",
      "type": "function"
    },
    {
      "inputs": [],
      "name": "getInsuranceRatePercent",
      "outputs": [
        {
          "internalType": "uint256",
          "name": "",
          "type": "uint256"
        }
      ],
      "stateMutability": "pure",
      "type": "function"
    },
    {
      "inputs": [],
      "name": "getMyIndexes",
      "outputs": [
        {
          "internalType": "uint8[3]",
          "name": "",
          "type": "uint8[3]"
        }
      ],
      "stateMutability": "view",
      "type": "function"
    },
    {
      "inputs": [],
      "name": "getPassengerCredit",
      "outputs": [
        {
          "internalType": "uint256",
          "name": "",
          "type": "uint256"
        }
      ],
      "stateMutability": "view",
      "type": "function"
    },
    {
      "inputs": [
        {
          "internalType": "address",
          "name": "airline",
          "type": "address"
        }
      ],
      "name": "getVotesForAirline",
      "outputs": [
        {
          "internalType": "uint256",
          "name": "",
          "type": "uint256"
        }
      ],
      "stateMutability": "view",
      "type": "function"
    },
    {
      "inputs": [],
      "name": "getVotesThreshold",
      "outputs": [
        {
          "internalType": "uint256",
          "name": "",
          "type": "uint256"
        }
      ],
      "stateMutability": "view",
      "type": "function"
    },
    {
      "inputs": [],
      "name": "owner",
      "outputs": [
        {
          "internalType": "address",
          "name": "",
          "type": "address"
        }
      ],
      "stateMutability": "view",
      "type": "function"
    },
    {
      "inputs": [],
      "name": "paused",
      "outputs": [
        {
          "internalType": "bool",
          "name": "",
          "type": "bool"
        }
      ],
      "stateMutability": "view",
      "type": "function"
    },
    {
      "inputs": [
        {
          "internalType": "bytes32",
          "name": "flightKey",
          "type": "bytes32"
        }
      ],
      "name": "purchaseInsurance",
      "outputs": [],
      "stateMutability": "payable",
      "type": "function"
    },
    {
      "inputs": [
        {
          "internalType": "address",
          "name": "airline",
          "type": "address"
        }
      ],
      "name": "registerAirline",
      "outputs": [],
      "stateMutability": "nonpayable",
      "type": "function"
    },
    {
      "inputs": [
        {
          "internalType": "bytes32",
          "name": "flightKey",
          "type": "bytes32"
        },
        {
          "internalType": "string",
          "name": "name",
          "type": "string"
        },
        {
          "internalType": "uint256",
          "name": "timestamp",
          "type": "uint256"
        },
        {
          "internalType": "string",
          "name": "origin",
          "type": "string"
        },
        {
          "internalType": "string",
          "name": "destination",
          "type": "string"
        }
      ],
      "name": "registerFlight",
      "outputs": [],
      "stateMutability": "nonpayable",
      "type": "function"
    },
    {
      "inputs": [],
      "name": "registerOracle",
      "outputs": [],
      "stateMutability": "payable",
      "type": "function"
    },
    {
      "inputs": [],
      "name": "renounceOwnership",
      "outputs": [],
      "stateMutability": "nonpayable",
      "type": "function"
    },
    {
      "inputs": [
        {
          "internalType": "bool",
          "name": "mode",
          "type": "bool"
        }
      ],
      "name": "setPausableStatus",
      "outputs": [],
      "stateMutability": "nonpayable",
      "type": "function"
    },
    {
      "inputs": [
        {
          "internalType": "uint8",
          "name": "index",
          "type": "uint8"
        },
        {
          "internalType": "address",
          "name": "airline",
          "type": "address"
        },
        {
          "internalType": "string",
          "name": "flight",
          "type": "string"
        },
        {
          "internalType": "uint256",
          "name": "timestamp",
          "type": "uint256"
        },
        {
          "internalType": "uint8",
          "name": "statusCode",
          "type": "uint8"
        }
      ],
      "name": "submitOracleResponse",
      "outputs": [],
      "stateMutability": "nonpayable",
      "type": "function"
    },
    {
      "inputs": [
        {
          "internalType": "address",
          "name": "newOwner",
          "type": "address"
        }
      ],
      "name": "transferOwnership",
      "outputs": [],
      "stateMutability": "nonpayable",
      "type": "function"
    },
    {
      "inputs": [
        {
          "internalType": "bytes32",
          "name": "flightKey",
          "type": "bytes32"
        },
        {
          "internalType": "uint8",
          "name": "statusCode",
          "type": "uint8"
        }
      ],
      "name": "updateFlightStatus",
      "outputs": [],
      "stateMutability": "nonpayable",
      "type": "function"
    },
    {
      "inputs": [],
      "name": "withdrawCredit",
      "outputs": [],
      "stateMutability": "nonpayable",
      "type": "function"
    },
    {
      "stateMutability": "payable",
      "type": "receive"
    }
  ],
  "bytecode": "0x608060405260006002556040518061028001604052806040518060600160405280600060ff168152602001600160ff168152602001600260ff1681525081526020016040518060600160405280600360ff168152602001600460ff168152602001600560ff1681525081526020016040518060600160405280600660ff168152602001600760ff168152602001600860ff1681525081526020016040518060600160405280600960ff168152602001600060ff168152602001600160ff1681525081526020016040518060600160405280600260ff168152602001600360ff168152602001600460ff1681525081526020016040518060600160405280600560ff168152602001600660ff168152602001600760ff1681525081526020016040518060600160405280600860ff168152602001600960ff168152602001600060ff1681525081526020016040518060600160405280600160ff168152602001600260ff168152602001600360ff1681525081526020016040518060600160405280600460ff168152602001600560ff168152602001600660ff1681525081526020016040518060600160405280600760ff168152602001600860ff168152602001600960ff1681525081526020016040518060600160405280600060ff168152602001600160ff168152602001600260ff1681525081526020016040518060600160405280600360ff168152602001600460ff168152602001600560ff1681525081526020016040518060600160405280600660ff168152602001600760ff168152602001600860ff1681525081526020016040518060600160405280600960ff168152602001600060ff168152602001600160ff1681525081526020016040518060600160405280600260ff168152602001600360ff168152602001600460ff1681525081526020016040518060600160405280600560ff168152602001600660ff168152602001600760ff1681525081526020016040518060600160405280600860ff168152602001600960ff168152602001600060ff1681525081526020016040518060600160405280600160ff168152602001600260ff168152602001600360ff1681525081526020016040518060600160405280600460ff168152602001600560ff168152602001600660ff1681525081526020016040518060600160405280600760ff168152602001600860ff168152602001600960ff16815250815250600b9060146200039592919062000611565b506000601f60006101000a81548160ff021916908360ff160217905550348015620003bf57600080fd5b5060405162004d9138038062004d918339818101604052810190620003e59190620007bf565b81600073ffffffffffffffffffffffffffffffffffffffff168173ffffffffffffffffffffffffffffffffffffffff16036200045b5760006040517f1e4fbdf700000000000000000000000000000000000000000000000000000000815260040162000452919062000817565b60405180910390fd5b6200046c816200054d60201b60201c565b5060008060146101000a81548160ff02191690831515021790555060018081905550604051806040016040528060011515815260200160001515815250600460008373ffffffffffffffffffffffffffffffffffffffff1673ffffffffffffffffffffffffffffffffffffffff16815260200190815260200160002060008201518160000160006101000a81548160ff02191690831515021790555060208201518160000160016101000a81548160ff0219169083151502179055509050506002600081548092919062000540906200086d565b91905055505050620008ba565b60008060009054906101000a900473ffffffffffffffffffffffffffffffffffffffff169050816000806101000a81548173ffffffffffffffffffffffffffffffffffffffff021916908373ffffffffffffffffffffffffffffffffffffffff1602179055508173ffffffffffffffffffffffffffffffffffffffff168173ffffffffffffffffffffffffffffffffffffffff167f8be0079c531659141344cd1fd0a4f28419497f9722a3daafe3b4186f6b6457e060405160405180910390a35050565b826014810192821562000653579160200282015b8281111562000652578251829060036200064192919062000666565b509160200191906001019062000625565b5b50905062000662919062000707565b5090565b826003601f01602090048101928215620006f45791602002820160005b83821115620006c357835183826101000a81548160ff021916908360ff160217905550926020019260010160208160000104928301926001030262000683565b8015620006f25782816101000a81549060ff0219169055600101602081600001049283019260010302620006c3565b505b5090506200070391906200072f565b5090565b5b808211156200072b57600081816200072191906200074e565b5060010162000708565b5090565b5b808211156200074a57600081600090555060010162000730565b5090565b5060009055565b600080fd5b600073ffffffffffffffffffffffffffffffffffffffff82169050919050565b600062000787826200075a565b9050919050565b62000799816200077a565b8114620007a557600080fd5b50565b600081519050620007b9816200078e565b92915050565b60008060408385031215620007d957620007d862000755565b5b6000620007e985828601620007a8565b9250506020620007fc85828601620007a8565b9150509250929050565b62000811816200077a565b82525050565b60006020820190506200082e600083018462000806565b92915050565b7f4e487b7100000000000000000000000000000000000000000000000000000000600052601160045260246000fd5b6000819050919050565b60006200087a8262000863565b91507fffffffffffffffffffffffffffffffffffffffffffffffffffffffffffffffff8203620008af57620008ae62000834565b5b600182019050919050565b6144c780620008ca6000396000f3fe6080604052600436106101855760003560e01c80637f9e1808116100d1578063c36f38741161008a578063d88641e611610064578063d88641e6146104fa578063d9e35cca14610525578063da2cad8814610550578063f2fde38b1461057b5761018f565b8063c36f387414610476578063cac8f2921461048d578063cc2f6eba146104d15761018f565b80637f9e1808146103a85780638da5cb5b146103d357806396d8b04a146103fe5780639ed189271461041a578063bdfd987714610424578063c10f27001461044d5761018f565b80635c975abb1161013e57806367561d931161011857806367561d93146103025780636e861c0e1461032b578063715018a614610354578063720c7cbb1461036b5761018f565b80635c975abb146102815780635f1cc0e6146102ac57806364b4f751146102d75761018f565b80630b3a60a9146101945780632caa2853146101bf578063308f1286146101e8578063339d2590146102255780633522638b1461022f5780633f2aecea146102585761018f565b3661018f57600080fd5b600080fd5b3480156101a057600080fd5b506101a96105a4565b6040516101b69190612d38565b60405180910390f35b3480156101cb57600080fd5b506101e660048036038101906101e19190612f0f565b6105b0565b005b3480156101f457600080fd5b5061020f600480360381019061020a919061303c565b6107cb565b60405161021c9190612d38565b60405180910390f35b61022d610817565b005b34801561023b57600080fd5b50610256600480360381019061025191906130a1565b6109ca565b005b34801561026457600080fd5b5061027f600480360381019061027a9190613107565b610a3e565b005b34801561028d57600080fd5b50610296610c46565b6040516102a39190613156565b60405180910390f35b3480156102b857600080fd5b506102c1610c5c565b6040516102ce919061321c565b60405180910390f35b3480156102e357600080fd5b506102ec610d9c565b6040516102f99190612d38565b60405180910390f35b34801561030e57600080fd5b506103296004803603810190610324919061303c565b610da8565b005b34801561033757600080fd5b50610352600480360381019061034d919061303c565b610e2f565b005b34801561036057600080fd5b50610369610eb4565b005b34801561037757600080fd5b50610392600480360381019061038d919061303c565b610ec8565b60405161039f9190613275565b60405180910390f35b3480156103b457600080fd5b506103bd610fe6565b6040516103ca9190612d38565b60405180910390f35b3480156103df57600080fd5b506103e8610ff0565b6040516103f5919061329f565b60405180910390f35b610418600480360381019061041391906132ba565b611019565b005b6104226111d5565b005b34801561043057600080fd5b5061044b6004803603810190610446919061303c565b6113eb565b005b34801561045957600080fd5b50610474600480360381019061046f91906132e7565b6119ea565b005b34801561048257600080fd5b5061048b611e08565b005b34801561049957600080fd5b506104b460048036038101906104af91906132ba565b611f57565b6040516104c898979695949392919061340c565b60405180910390f35b3480156104dd57600080fd5b506104f860048036038101906104f391906132ba565b612223565b005b34801561050657600080fd5b5061050f612540565b60405161051c9190612d38565b60405180910390f35b34801561053157600080fd5b5061053a612550565b6040516105479190612d38565b60405180910390f35b34801561055c57600080fd5b50610565612597565b6040516105729190612d38565b60405180910390f35b34801561058757600080fd5b506105a2600480360381019061059d919061303c565b612675565b005b6000609660ff16905090565b600460003373ffffffffffffffffffffffffffffffffffffffff1673ffffffffffffffffffffffffffffffffffffffff16815260200190815260200160002060000160019054906101000a900460ff1661063f576040517f08c379a0000000000000000000000000000000000000000000000000000000008152600401610636906134eb565b60405180910390fd5b604051806101000160405280858152602001848152602001848152602001838152602001828152602001600115158152602001600060ff1681526020013373ffffffffffffffffffffffffffffffffffffffff168152506008600087815260200190815260200160002060008201518160000190816106be9190613717565b50602082015181600101556040820151816002015560608201518160030190816106e89190613717565b5060808201518160040190816106fe9190613717565b5060a08201518160050160006101000a81548160ff02191690831515021790555060c08201518160050160016101000a81548160ff021916908360ff16021790555060e08201518160050160026101000a81548173ffffffffffffffffffffffffffffffffffffffff021916908373ffffffffffffffffffffffffffffffffffffffff1602179055509050507f8e0f88a4762f63c2865ecc405499bd574dae2494d654c4be45fb8286517611b68560006040516107bc9291906137f8565b60405180910390a15050505050565b6000600760008373ffffffffffffffffffffffffffffffffffffffff1673ffffffffffffffffffffffffffffffffffffffff168152602001908152602001600020805490509050919050565b670de0b6b3a7640000341015610862576040517f08c379a00000000000000000000000000000000000000000000000000000000081526004016108599061386d565b60405180910390fd5b600960003373ffffffffffffffffffffffffffffffffffffffff1673ffffffffffffffffffffffffffffffffffffffff16815260200190815260200160002060000160009054906101000a900460ff16156108f2576040517f08c379a00000000000000000000000000000000000000000000000000000000081526004016108e9906138d9565b60405180910390fd5b60006108fc6126fb565b9050604051806040016040528060011515815260200182815250600960003373ffffffffffffffffffffffffffffffffffffffff1673ffffffffffffffffffffffffffffffffffffffff16815260200190815260200160002060008201518160000160006101000a81548160ff02191690831515021790555060208201518160010190600361098c929190612c07565b509050507fd9d9fdcc9f936c76b5aafe54fc3db5dcec0c6583c9ccc4abe91d17575c5145a5336040516109bf919061329f565b60405180910390a150565b6109d2612890565b8015156109dd610c46565b151503610a1f576040517f08c379a0000000000000000000000000000000000000000000000000000000008152600401610a169061396b565b60405180910390fd5b8015610a3257610a2d612917565b610a3b565b610a3a61297a565b5b50565b600460003373ffffffffffffffffffffffffffffffffffffffff1673ffffffffffffffffffffffffffffffffffffffff16815260200190815260200160002060000160009054906101000a900460ff16610acd576040517f08c379a0000000000000000000000000000000000000000000000000000000008152600401610ac4906139d7565b60405180910390fd5b600460003373ffffffffffffffffffffffffffffffffffffffff1673ffffffffffffffffffffffffffffffffffffffff16815260200190815260200160002060000160019054906101000a900460ff16610b5c576040517f08c379a0000000000000000000000000000000000000000000000000000000008152600401610b5390613a43565b60405180910390fd5b6008600083815260200190815260200160002060050160009054906101000a900460ff16610bbf576040517f08c379a0000000000000000000000000000000000000000000000000000000008152600401610bb690613aaf565b60405180910390fd5b806008600084815260200190815260200160002060050160016101000a81548160ff021916908360ff1602179055504260086000848152602001908152602001600020600101819055507f6b7efd1d185714db0de1fb8acf2c5fba53efbdf80a89fe0385d209e3503adfc58282604051610c3a9291906137f8565b60405180910390a15050565b60008060149054906101000a900460ff16905090565b610c64612ca1565b600960003373ffffffffffffffffffffffffffffffffffffffff1673ffffffffffffffffffffffffffffffffffffffff16815260200190815260200160002060000160009054906101000a900460ff16610cf3576040517f08c379a0000000000000000000000000000000000000000000000000000000008152600401610cea90613b1b565b60405180910390fd5b600960003373ffffffffffffffffffffffffffffffffffffffff1673ffffffffffffffffffffffffffffffffffffffff168152602001908152602001600020600101600380602002604051908101604052809291908260038015610d92576020028201916000905b82829054906101000a900460ff1660ff1681526020019060010190602082600001049283019260010382029150808411610d5b5790505b5050505050905090565b670de0b6b3a764000081565b610db0612890565b6001600360008373ffffffffffffffffffffffffffffffffffffffff1673ffffffffffffffffffffffffffffffffffffffff168152602001908152602001600020819055507f2c74592fddad593c2c4403101ce9b30930711ab87571268ddd1e1989ee1d791781604051610e24919061329f565b60405180910390a150565b610e37612890565b600360008273ffffffffffffffffffffffffffffffffffffffff1673ffffffffffffffffffffffffffffffffffffffff168152602001908152602001600020600090557fdce35c6ead5e97f9a12a9dfe363465b6f62c5fab770d14f46f89c82c58819cc681604051610ea9919061329f565b60405180910390a150565b610ebc612890565b610ec660006129dc565b565b610ed0612cc3565b600460008373ffffffffffffffffffffffffffffffffffffffff1673ffffffffffffffffffffffffffffffffffffffff16815260200190815260200160002060000160009054906101000a900460ff16610f5f576040517f08c379a0000000000000000000000000000000000000000000000000000000008152600401610f56906139d7565b60405180910390fd5b600460008373ffffffffffffffffffffffffffffffffffffffff1673ffffffffffffffffffffffffffffffffffffffff1681526020019081526020016000206040518060400160405290816000820160009054906101000a900460ff161515151581526020016000820160019054906101000a900460ff1615151515815250509050919050565b6000600254905090565b60008060009054906101000a900473ffffffffffffffffffffffffffffffffffffffff16905090565b611021612aa0565b611029612ae6565b6008600082815260200190815260200160002060050160009054906101000a900460ff1661108c576040517f08c379a000000000000000000000000000000000000000000000000000000000815260040161108390613aaf565b60405180910390fd5b670de0b6b3a76400003411156110d7576040517f08c379a00000000000000000000000000000000000000000000000000000000081526004016110ce90613bad565b60405180910390fd5b6005600082815260200190815260200160002060405180604001604052803373ffffffffffffffffffffffffffffffffffffffff16815260200134815250908060018154018082558091505060019003906000526020600020906002020160009091909190915060008201518160000160006101000a81548173ffffffffffffffffffffffffffffffffffffffff021916908373ffffffffffffffffffffffffffffffffffffffff1602179055506020820151816001015550507f560e0ec59b8302a4db7417f20b3b117c19e01defaec71a75c29bddbcbe503e2233826040516111c2929190613bcd565b60405180910390a16111d2612b27565b50565b6111dd612aa0565b6111e5612ae6565b600460003373ffffffffffffffffffffffffffffffffffffffff1673ffffffffffffffffffffffffffffffffffffffff16815260200190815260200160002060000160009054906101000a900460ff16611274576040517f08c379a000000000000000000000000000000000000000000000000000000000815260040161126b906139d7565b60405180910390fd5b600460003373ffffffffffffffffffffffffffffffffffffffff1673ffffffffffffffffffffffffffffffffffffffff16815260200190815260200160002060000160019054906101000a900460ff1615611304576040517f08c379a00000000000000000000000000000000000000000000000000000000081526004016112fb90613c42565b60405180910390fd5b678ac7230489e8000034101561134f576040517f08c379a000000000000000000000000000000000000000000000000000000000815260040161134690613cae565b60405180910390fd5b6001600460003373ffffffffffffffffffffffffffffffffffffffff1673ffffffffffffffffffffffffffffffffffffffff16815260200190815260200160002060000160016101000a81548160ff0219169083151502179055507f3c348ba34685212d5d04f432a9e569b642b180df0227a6b0c899050c4acb7af8336040516113d9919061329f565b60405180910390a16113e9612b27565b565b600460003373ffffffffffffffffffffffffffffffffffffffff1673ffffffffffffffffffffffffffffffffffffffff16815260200190815260200160002060000160009054906101000a900460ff1661147a576040517f08c379a000000000000000000000000000000000000000000000000000000000815260040161147190613d40565b60405180910390fd5b600460008273ffffffffffffffffffffffffffffffffffffffff1673ffffffffffffffffffffffffffffffffffffffff16815260200190815260200160002060000160009054906101000a900460ff161561150a576040517f08c379a000000000000000000000000000000000000000000000000000000000815260040161150190613dac565b60405180910390fd5b600460ff16600254116115c6576001600460008373ffffffffffffffffffffffffffffffffffffffff1673ffffffffffffffffffffffffffffffffffffffff16815260200190815260200160002060000160006101000a81548160ff0219169083151502179055506002600081548092919061158590613dfb565b91905055507f89a6354fb229eda6cbc28306798727b4d524818d2c375220bc3f360f24cffaca816040516115b9919061329f565b60405180910390a16119e7565b6000600760008373ffffffffffffffffffffffffffffffffffffffff1673ffffffffffffffffffffffffffffffffffffffff16815260200190815260200160002080549050036116b557600760008273ffffffffffffffffffffffffffffffffffffffff1673ffffffffffffffffffffffffffffffffffffffff168152602001908152602001600020339080600181540180825580915050600190039060005260206000200160009091909190916101000a81548173ffffffffffffffffffffffffffffffffffffffff021916908373ffffffffffffffffffffffffffffffffffffffff16021790555061189a565b60005b600760008373ffffffffffffffffffffffffffffffffffffffff1673ffffffffffffffffffffffffffffffffffffffff168152602001908152602001600020805490508110156117f8573373ffffffffffffffffffffffffffffffffffffffff16600760008473ffffffffffffffffffffffffffffffffffffffff1673ffffffffffffffffffffffffffffffffffffffff168152602001908152602001600020828154811061176a57611769613e43565b5b9060005260206000200160009054906101000a900473ffffffffffffffffffffffffffffffffffffffff1673ffffffffffffffffffffffffffffffffffffffff16036117eb576040517f08c379a00000000000000000000000000000000000000000000000000000000081526004016117e290613ee4565b60405180910390fd5b80806001019150506116b8565b50600760008273ffffffffffffffffffffffffffffffffffffffff1673ffffffffffffffffffffffffffffffffffffffff168152602001908152602001600020339080600181540180825580915050600190039060005260206000200160009091909190916101000a81548173ffffffffffffffffffffffffffffffffffffffff021916908373ffffffffffffffffffffffffffffffffffffffff1602179055505b60006118a4612597565b905080600760008473ffffffffffffffffffffffffffffffffffffffff1673ffffffffffffffffffffffffffffffffffffffff16815260200190815260200160002080549050106119e5576001600460008473ffffffffffffffffffffffffffffffffffffffff1673ffffffffffffffffffffffffffffffffffffffff16815260200190815260200160002060000160006101000a81548160ff021916908315150217905550600760008373ffffffffffffffffffffffffffffffffffffffff1673ffffffffffffffffffffffffffffffffffffffff16815260200190815260200160002060006119959190612ce1565b600260008154809291906119a890613dfb565b91905055507f89a6354fb229eda6cbc28306798727b4d524818d2c375220bc3f360f24cffaca826040516119dc919061329f565b60405180910390a15b505b50565b600960003373ffffffffffffffffffffffffffffffffffffffff1673ffffffffffffffffffffffffffffffffffffffff16815260200190815260200160002060000160009054906101000a900460ff16611a79576040517f08c379a0000000000000000000000000000000000000000000000000000000008152600401611a7090613f50565b60405180910390fd5b8460ff16600960003373ffffffffffffffffffffffffffffffffffffffff1673ffffffffffffffffffffffffffffffffffffffff168152602001908152602001600020600101600060038110611ad257611ad1613e43565b5b602091828204019190069054906101000a900460ff1660ff161480611b6657508460ff16600960003373ffffffffffffffffffffffffffffffffffffffff1673ffffffffffffffffffffffffffffffffffffffff168152602001908152602001600020600101600160038110611b4b57611b4a613e43565b5b602091828204019190069054906101000a900460ff1660ff16145b80611be057508460ff16600960003373ffffffffffffffffffffffffffffffffffffffff1673ffffffffffffffffffffffffffffffffffffffff168152602001908152602001600020600101600260038110611bc557611bc4613e43565b5b602091828204019190069054906101000a900460ff1660ff16145b611c1f576040517f08c379a0000000000000000000000000000000000000000000000000000000008152600401611c1690613fe2565b60405180910390fd5b600085858585604051602001611c3894939291906140dd565b604051602081830303815290604052805190602001209050600a600082815260200190815260200160002060000160149054906101000a900460ff16611cb3576040517f08c379a0000000000000000000000000000000000000000000000000000000008152600401611caa90614199565b60405180910390fd5b600a600082815260200190815260200160002060010160008360ff1660ff168152602001908152602001600020339080600181540180825580915050600190039060005260206000200160009091909190916101000a81548173ffffffffffffffffffffffffffffffffffffffff021916908373ffffffffffffffffffffffffffffffffffffffff1602179055507f43c853095c2752648493c88b4baac4d580d2594ffb00c6f1d4242d844514f78385858585604051611d7694939291906141b9565b60405180910390a16003600a600083815260200190815260200160002060010160008460ff1660ff1681526020019081526020016000208054905010611e00577fe23f5229de535c091e3b7bec2665f5d698192d3b31393066e8987b7a05076b6c85858585604051611deb94939291906141b9565b60405180910390a1611dff85858585612b30565b5b505050505050565b6000600660003373ffffffffffffffffffffffffffffffffffffffff1673ffffffffffffffffffffffffffffffffffffffff16815260200190815260200160002054905060008111611e8f576040517f08c379a0000000000000000000000000000000000000000000000000000000008152600401611e8690614251565b60405180910390fd5b6000600660003373ffffffffffffffffffffffffffffffffffffffff1673ffffffffffffffffffffffffffffffffffffffff168152602001908152602001600020819055503373ffffffffffffffffffffffffffffffffffffffff166108fc829081150290604051600060405180830381858888f19350505050158015611f1a573d6000803e3d6000fd5b507f030a01aa653934ffdaf64d8bd90e1bae0c5dc0f14137194d7148d427431c33283382604051611f4c929190614271565b60405180910390a150565b606060006060806000806000806000600860008b815260200190815260200160002060405180610100016040529081600082018054611f959061353a565b80601f0160208091040260200160405190810160405280929190818152602001828054611fc19061353a565b801561200e5780601f10611fe35761010080835404028352916020019161200e565b820191906000526020600020905b815481529060010190602001808311611ff157829003601f168201915b50505050508152602001600182015481526020016002820154815260200160038201805461203b9061353a565b80601f01602080910402602001604051908101604052809291908181526020018280546120679061353a565b80156120b45780601f10612089576101008083540402835291602001916120b4565b820191906000526020600020905b81548152906001019060200180831161209757829003601f168201915b505050505081526020016004820180546120cd9061353a565b80601f01602080910402602001604051908101604052809291908181526020018280546120f99061353a565b80156121465780601f1061211b57610100808354040283529160200191612146565b820191906000526020600020905b81548152906001019060200180831161212957829003601f168201915b505050505081526020016005820160009054906101000a900460ff161515151581526020016005820160019054906101000a900460ff1660ff1660ff1681526020016005820160029054906101000a900473ffffffffffffffffffffffffffffffffffffffff1673ffffffffffffffffffffffffffffffffffffffff1673ffffffffffffffffffffffffffffffffffffffff1681525050905080600001518160400151826060015183608001518460a001518560c0015186602001518760e001519850985098509850985098509850985050919395975091939597565b6008600082815260200190815260200160002060050160009054906101000a900460ff16612286576040517f08c379a000000000000000000000000000000000000000000000000000000000815260040161227d90613aaf565b60405180910390fd5b601460ff166008600083815260200190815260200160002060050160019054906101000a900460ff1660ff16146122f2576040517f08c379a00000000000000000000000000000000000000000000000000000000081526004016122e99061430c565b60405180910390fd5b60005b600560008381526020019081526020016000208054905081101561253c57600080612363609660ff1660056000878152602001908152602001600020858154811061234357612342613e43565b5b906000526020600020906002020160010154612b3690919063ffffffff16565b91509150816123a7576040517f08c379a000000000000000000000000000000000000000000000000000000000815260040161239e90614378565b60405180910390fd5b6000806123be606484612b8990919063ffffffff16565b9150915081612402576040517f08c379a00000000000000000000000000000000000000000000000000000000081526004016123f9906143e4565b60405180910390fd5b8060066000600560008a8152602001908152602001600020888154811061242c5761242b613e43565b5b906000526020600020906002020160000160009054906101000a900473ffffffffffffffffffffffffffffffffffffffff1673ffffffffffffffffffffffffffffffffffffffff1673ffffffffffffffffffffffffffffffffffffffff168152602001908152602001600020819055507f387e531539117ffbbc64346498e91d0916d1cf52ac62a797e1102d5a400cb6326005600088815260200190815260200160002086815481106124e2576124e1613e43565b5b906000526020600020906002020160000160009054906101000a900473ffffffffffffffffffffffffffffffffffffffff1682604051612523929190614271565b60405180910390a15050505080806001019150506122f5565b5050565b6000670de0b6b3a7640000905090565b6000600660003373ffffffffffffffffffffffffffffffffffffffff1673ffffffffffffffffffffffffffffffffffffffff16815260200190815260200160002054905090565b6000600460ff16600254116125af5760019050612672565b6000806125cb603260ff16600254612b3690919063ffffffff16565b915091508161260f576040517f08c379a000000000000000000000000000000000000000000000000000000000815260040161260690614378565b60405180910390fd5b600080612626606484612b8990919063ffffffff16565b915091508161266a576040517f08c379a0000000000000000000000000000000000000000000000000000000008152600401612661906143e4565b60405180910390fd5b809450505050505b90565b61267d612890565b600073ffffffffffffffffffffffffffffffffffffffff168173ffffffffffffffffffffffffffffffffffffffff16036126ef5760006040517f1e4fbdf70000000000000000000000000000000000000000000000000000000081526004016126e6919061329f565b60405180910390fd5b6126f8816129dc565b50565b612703612ca1565b6000601f60009054906101000a900460ff16905060006040518060600160405280600b8460ff166014811061273b5761273a613e43565b5b0160006003811061274f5761274e613e43565b5b602091828204019190069054906101000a900460ff1660ff1660ff168152602001600b8460ff166014811061278757612786613e43565b5b0160016003811061279b5761279a613e43565b5b602091828204019190069054906101000a900460ff1660ff1660ff168152602001600b8460ff16601481106127d3576127d2613e43565b5b016002600381106127e7576127e6613e43565b5b602091828204019190069054906101000a900460ff1660ff1660ff16815250905060146001601f60009054906101000a900460ff166128269190614404565b60ff160361284f576000601f60006101000a81548160ff021916908360ff160217905550612888565b601f600081819054906101000a900460ff168092919061286e90614439565b91906101000a81548160ff021916908360ff160217905550505b809250505090565b612898612bbf565b73ffffffffffffffffffffffffffffffffffffffff166128b6610ff0565b73ffffffffffffffffffffffffffffffffffffffff1614612915576128d9612bbf565b6040517f118cdaa700000000000000000000000000000000000000000000000000000000815260040161290c919061329f565b60405180910390fd5b565b61291f612ae6565b6001600060146101000a81548160ff0219169083151502179055507f62e78cea01bee320cd4e420270b5ea74000d11b0c9f74754ebdbfc544b05a258612963612bbf565b604051612970919061329f565b60405180910390a1565b612982612bc7565b60008060146101000a81548160ff0219169083151502179055507f5db9ee0a495bf2e6ff9c91a7834c1ba4fdd244a5e8aa4e537bd38aeae4b073aa6129c5612bbf565b6040516129d2919061329f565b60405180910390a1565b60008060009054906101000a900473ffffffffffffffffffffffffffffffffffffffff169050816000806101000a81548173ffffffffffffffffffffffffffffffffffffffff021916908373ffffffffffffffffffffffffffffffffffffffff1602179055508173ffffffffffffffffffffffffffffffffffffffff168173ffffffffffffffffffffffffffffffffffffffff167f8be0079c531659141344cd1fd0a4f28419497f9722a3daafe3b4186f6b6457e060405160405180910390a35050565b600260015403612adc576040517f3ee5aeb500000000000000000000000000000000000000000000000000000000815260040160405180910390fd5b6002600181905550565b612aee610c46565b15612b25576040517fd93c066500000000000000000000000000000000000000000000000000000000815260040160405180910390fd5b565b60018081905550565b50505050565b60008060008403612b4e576001600091509150612b82565b6000838502905083858281612b6657612b65614462565b5b0414612b79576000809250925050612b82565b60018192509250505b9250929050565b60008060008303612ba05760008091509150612bb8565b6001838581612bb257612bb1614462565b5b04915091505b9250929050565b600033905090565b612bcf610c46565b612c05576040517f8dfc202b00000000000000000000000000000000000000000000000000000000815260040160405180910390fd5b565b826003601f01602090048101928215612c905791602002820160005b83821115612c6157835183826101000a81548160ff021916908360ff1602179055509260200192600101602081600001049283019260010302612c23565b8015612c8e5782816101000a81549060ff0219169055600101602081600001049283019260010302612c61565b505b509050612c9d9190612d02565b5090565b6040518060600160405280600390602082028036833780820191505090505090565b60405180604001604052806000151581526020016000151581525090565b5080546000825590600052602060002090810190612cff9190612d02565b50565b5b80821115612d1b576000816000905550600101612d03565b5090565b6000819050919050565b612d3281612d1f565b82525050565b6000602082019050612d4d6000830184612d29565b92915050565b6000604051905090565b600080fd5b600080fd5b6000819050919050565b612d7a81612d67565b8114612d8557600080fd5b50565b600081359050612d9781612d71565b92915050565b600080fd5b600080fd5b6000601f19601f8301169050919050565b7f4e487b7100000000000000000000000000000000000000000000000000000000600052604160045260246000fd5b612df082612da7565b810181811067ffffffffffffffff82111715612e0f57612e0e612db8565b5b80604052505050565b6000612e22612d53565b9050612e2e8282612de7565b919050565b600067ffffffffffffffff821115612e4e57612e4d612db8565b5b612e5782612da7565b9050602081019050919050565b82818337600083830152505050565b6000612e86612e8184612e33565b612e18565b905082815260208101848484011115612ea257612ea1612da2565b5b612ead848285612e64565b509392505050565b600082601f830112612eca57612ec9612d9d565b5b8135612eda848260208601612e73565b91505092915050565b612eec81612d1f565b8114612ef757600080fd5b50565b600081359050612f0981612ee3565b92915050565b600080600080600060a08688031215612f2b57612f2a612d5d565b5b6000612f3988828901612d88565b955050602086013567ffffffffffffffff811115612f5a57612f59612d62565b5b612f6688828901612eb5565b9450506040612f7788828901612efa565b935050606086013567ffffffffffffffff811115612f9857612f97612d62565b5b612fa488828901612eb5565b925050608086013567ffffffffffffffff811115612fc557612fc4612d62565b5b612fd188828901612eb5565b9150509295509295909350565b600073ffffffffffffffffffffffffffffffffffffffff82169050919050565b600061300982612fde565b9050919050565b61301981612ffe565b811461302457600080fd5b50565b60008135905061303681613010565b92915050565b60006020828403121561305257613051612d5d565b5b600061306084828501613027565b91505092915050565b60008115159050919050565b61307e81613069565b811461308957600080fd5b50565b60008135905061309b81613075565b92915050565b6000602082840312156130b7576130b6612d5d565b5b60006130c58482850161308c565b91505092915050565b600060ff82169050919050565b6130e4816130ce565b81146130ef57600080fd5b50565b600081359050613101816130db565b92915050565b6000806040838503121561311e5761311d612d5d565b5b600061312c85828601612d88565b925050602061313d858286016130f2565b9150509250929050565b61315081613069565b82525050565b600060208201905061316b6000830184613147565b92915050565b600060039050919050565b600081905092915050565b6000819050919050565b61319a816130ce565b82525050565b60006131ac8383613191565b60208301905092915050565b6000602082019050919050565b6131ce81613171565b6131d8818461317c565b92506131e382613187565b8060005b838110156132145781516131fb87826131a0565b9650613206836131b8565b9250506001810190506131e7565b505050505050565b600060608201905061323160008301846131c5565b92915050565b61324081613069565b82525050565b60408201600082015161325c6000850182613237565b50602082015161326f6020850182613237565b50505050565b600060408201905061328a6000830184613246565b92915050565b61329981612ffe565b82525050565b60006020820190506132b46000830184613290565b92915050565b6000602082840312156132d0576132cf612d5d565b5b60006132de84828501612d88565b91505092915050565b600080600080600060a0868803121561330357613302612d5d565b5b6000613311888289016130f2565b955050602061332288828901613027565b945050604086013567ffffffffffffffff81111561334357613342612d62565b5b61334f88828901612eb5565b935050606061336088828901612efa565b9250506080613371888289016130f2565b9150509295509295909350565b600081519050919050565b600082825260208201905092915050565b60005b838110156133b857808201518184015260208101905061339d565b60008484015250505050565b60006133cf8261337e565b6133d98185613389565b93506133e981856020860161339a565b6133f281612da7565b840191505092915050565b613406816130ce565b82525050565b6000610100820190508181036000830152613427818b6133c4565b9050613436602083018a612d29565b818103604083015261344881896133c4565b9050818103606083015261345c81886133c4565b905061346b6080830187613147565b61347860a08301866133fd565b61348560c0830185612d29565b61349260e0830184613290565b9998505050505050505050565b7f43616c6c6572206973206e6f7420612066756e646564206169726c696e652e00600082015250565b60006134d5601f83613389565b91506134e08261349f565b602082019050919050565b60006020820190508181036000830152613504816134c8565b9050919050565b7f4e487b7100000000000000000000000000000000000000000000000000000000600052602260045260246000fd5b6000600282049050600182168061355257607f821691505b6020821081036135655761356461350b565b5b50919050565b60008190508160005260206000209050919050565b60006020601f8301049050919050565b600082821b905092915050565b6000600883026135cd7fffffffffffffffffffffffffffffffffffffffffffffffffffffffffffffffff82613590565b6135d78683613590565b95508019841693508086168417925050509392505050565b6000819050919050565b600061361461360f61360a84612d1f565b6135ef565b612d1f565b9050919050565b6000819050919050565b61362e836135f9565b61364261363a8261361b565b84845461359d565b825550505050565b600090565b61365761364a565b613662818484613625565b505050565b5b818110156136865761367b60008261364f565b600181019050613668565b5050565b601f8211156136cb5761369c8161356b565b6136a584613580565b810160208510156136b4578190505b6136c86136c085613580565b830182613667565b50505b505050565b600082821c905092915050565b60006136ee600019846008026136d0565b1980831691505092915050565b600061370783836136dd565b9150826002028217905092915050565b6137208261337e565b67ffffffffffffffff81111561373957613738612db8565b5b613743825461353a565b61374e82828561368a565b600060209050601f831160018114613781576000841561376f578287015190505b61377985826136fb565b8655506137e1565b601f19841661378f8661356b565b60005b828110156137b757848901518255600182019150602085019450602081019050613792565b868310156137d457848901516137d0601f8916826136dd565b8355505b6001600288020188555050505b505050505050565b6137f281612d67565b82525050565b600060408201905061380d60008301856137e9565b61381a60208301846133fd565b9392505050565b7f526567697374726174696f6e2066656520697320726571756972656400000000600082015250565b6000613857601c83613389565b915061386282613821565b602082019050919050565b600060208201905081810360008301526138868161384a565b9050919050565b7f4f7261636c6520697320616c7265616479207265676973746572656400000000600082015250565b60006138c3601c83613389565b91506138ce8261388d565b602082019050919050565b600060208201905081810360008301526138f2816138b6565b9050919050565b7f436f6e747261637420697320616c726561647920696e2074686520737461746560008201527f207265717565737465642e000000000000000000000000000000000000000000602082015250565b6000613955602b83613389565b9150613960826138f9565b604082019050919050565b6000602082019050818103600083015261398481613948565b9050919050565b7f4169726c696e65206973206e6f7420726567697374657265642e000000000000600082015250565b60006139c1601a83613389565b91506139cc8261398b565b602082019050919050565b600060208201905081810360008301526139f0816139b4565b9050919050565b7f4169726c696e65206973206e6f742066756e6465642e00000000000000000000600082015250565b6000613a2d601683613389565b9150613a38826139f7565b602082019050919050565b60006020820190508181036000830152613a5c81613a20565b9050919050565b7f466c69676874206973206e6f7420726567697374657265642e00000000000000600082015250565b6000613a99601983613389565b9150613aa482613a63565b602082019050919050565b60006020820190508181036000830152613ac881613a8c565b9050919050565b7f4e6f74207265676973746572656420617320616e206f7261636c650000000000600082015250565b6000613b05601b83613389565b9150613b1082613acf565b602082019050919050565b60006020820190508181036000830152613b3481613af8565b9050919050565b7f496e737572616e636520616d6f756e74206d757374206265206c65737320746860008201527f616e206f7220657175616c20746f20746865206c696d69742e00000000000000602082015250565b6000613b97603983613389565b9150613ba282613b3b565b604082019050919050565b60006020820190508181036000830152613bc681613b8a565b9050919050565b6000604082019050613be26000830185613290565b613bef60208301846137e9565b9392505050565b7f4169726c696e6520697320616c72656164792066756e6465642e000000000000600082015250565b6000613c2c601a83613389565b9150613c3782613bf6565b602082019050919050565b60006020820190508181036000830152613c5b81613c1f565b9050919050565b7f496e73756666696369656e742066756e64696e6720616d6f756e742e00000000600082015250565b6000613c98601c83613389565b9150613ca382613c62565b602082019050919050565b60006020820190508181036000830152613cc781613c8b565b9050919050565b7f43616c6c6572206973206e6f7420612072656769737465726564206169726c6960008201527f6e652e0000000000000000000000000000000000000000000000000000000000602082015250565b6000613d2a602383613389565b9150613d3582613cce565b604082019050919050565b60006020820190508181036000830152613d5981613d1d565b9050919050565b7f4169726c696e6520697320616c726561647920726567697374657265642e0000600082015250565b6000613d96601e83613389565b9150613da182613d60565b602082019050919050565b60006020820190508181036000830152613dc581613d89565b9050919050565b7f4e487b7100000000000000000000000000000000000000000000000000000000600052601160045260246000fd5b6000613e0682612d1f565b91507fffffffffffffffffffffffffffffffffffffffffffffffffffffffffffffffff8203613e3857613e37613dcc565b5b600182019050919050565b7f4e487b7100000000000000000000000000000000000000000000000000000000600052603260045260246000fd5b7f596f7527766520616c726561647920766f74656420666f72207468697320616960008201527f726c696e652e0000000000000000000000000000000000000000000000000000602082015250565b6000613ece602683613389565b9150613ed982613e72565b604082019050919050565b60006020820190508181036000830152613efd81613ec1565b9050919050565b7f4f7261636c65206973206e6f7420726567697374657265640000000000000000600082015250565b6000613f3a601883613389565b9150613f4582613f04565b602082019050919050565b60006020820190508181036000830152613f6981613f2d565b9050919050565b7f496e64657820646f6573206e6f74206d61746368206f7261636c65207265717560008201527f6573740000000000000000000000000000000000000000000000000000000000602082015250565b6000613fcc602383613389565b9150613fd782613f70565b604082019050919050565b60006020820190508181036000830152613ffb81613fbf565b9050919050565b60008160f81b9050919050565b600061401a82614002565b9050919050565b61403261402d826130ce565b61400f565b82525050565b60008160601b9050919050565b600061405082614038565b9050919050565b600061406282614045565b9050919050565b61407a61407582612ffe565b614057565b82525050565b600081905092915050565b60006140968261337e565b6140a08185614080565b93506140b081856020860161339a565b80840191505092915050565b6000819050919050565b6140d76140d282612d1f565b6140bc565b82525050565b60006140e98287614021565b6001820191506140f98286614069565b601482019150614109828561408b565b915061411582846140c6565b60208201915081905095945050505050565b7f466c69676874206f722074696d657374616d7020646f206e6f74206d6174636860008201527f206f7261636c6520726571756573740000000000000000000000000000000000602082015250565b6000614183602f83613389565b915061418e82614127565b604082019050919050565b600060208201905081810360008301526141b281614176565b9050919050565b60006080820190506141ce6000830187613290565b81810360208301526141e081866133c4565b90506141ef6040830185612d29565b6141fc60608301846133fd565b95945050505050565b7f4e6f2063726564697420746f2077697468647261772e00000000000000000000600082015250565b600061423b601683613389565b915061424682614205565b602082019050919050565b6000602082019050818103600083015261426a8161422e565b9050919050565b60006040820190506142866000830185613290565b6142936020830184612d29565b9392505050565b7f466c69676874206973206e6f742064656c617965642064756520746f2074686560008201527f206169726c696e652e0000000000000000000000000000000000000000000000602082015250565b60006142f6602983613389565b91506143018261429a565b604082019050919050565b60006020820190508181036000830152614325816142e9565b9050919050565b7f4d756c7469706c69636174696f6e206f766572666c6f772e0000000000000000600082015250565b6000614362601883613389565b915061436d8261432c565b602082019050919050565b6000602082019050818103600083015261439181614355565b9050919050565b7f4469766973696f6e206f766572666c6f772e0000000000000000000000000000600082015250565b60006143ce601283613389565b91506143d982614398565b602082019050919050565b600060208201905081810360008301526143fd816143c1565b9050919050565b600061440f826130ce565b915061441a836130ce565b9250828201905060ff81111561443357614432613dcc565b5b92915050565b6000614444826130ce565b915060ff820361445757614456613dcc565b5b600182019050919050565b7f4e487b7100000000000000000000000000000000000000000000000000000000600052601260045260246000fdfea26469706673582212204aa095c174b32edb726d1126ebff4e3c32bf3b37712b031bef8b540caa8c53f364736f6c63430008180033",
  "linkReferences": {},
  "deployedLinkReferences": {}
}