{
  "_format": "hh-sol-artifact-1",
  "contractName": "FlightSuretyApp",
  "sourceName": "contracts/FlightSuretyApp.sol",
  "abi": [
    {
      "inputs": [
        {
          "internalType": "address",
          "name": "initialOwner",
          "type": "address"
        }
      ],
      "stateMutability": "nonpayable",
      "type": "constructor"
    },
    {
      "inputs": [],
      "name": "EnforcedPause",
      "type": "error"
    },
    {
      "inputs": [],
      "name": "ExpectedPause",
      "type": "error"
    },
    {
      "inputs": [
        {
          "internalType": "address",
          "name": "owner",
          "type": "address"
        }
      ],
      "name": "OwnableInvalidOwner",
      "type": "error"
    },
    {
      "inputs": [
        {
          "internalType": "address",
          "name": "account",
          "type": "address"
        }
      ],
      "name": "OwnableUnauthorizedAccount",
      "type": "error"
    },
    {
      "inputs": [],
      "name": "ReentrancyGuardReentrantCall",
      "type": "error"
    },
    {
      "anonymous": false,
      "inputs": [
        {
          "indexed": false,
          "internalType": "bytes32",
          "name": "flightKey",
          "type": "bytes32"
        },
        {
          "indexed": false,
          "internalType": "uint8",
          "name": "statusCode",
          "type": "uint8"
        }
      ],
      "name": "FlightRegistered",
      "type": "event"
    },
    {
      "anonymous": false,
      "inputs": [
        {
          "indexed": false,
          "internalType": "address",
          "name": "airline",
          "type": "address"
        },
        {
          "indexed": false,
          "internalType": "string",
          "name": "flight",
          "type": "string"
        },
        {
          "indexed": false,
          "internalType": "uint256",
          "name": "timestamp",
          "type": "uint256"
        },
        {
          "indexed": false,
          "internalType": "uint8",
          "name": "status",
          "type": "uint8"
        }
      ],
      "name": "FlightStatusInfo",
      "type": "event"
    },
    {
      "anonymous": false,
      "inputs": [
        {
          "indexed": false,
          "internalType": "bytes32",
          "name": "flightKey",
          "type": "bytes32"
        },
        {
          "indexed": false,
          "internalType": "uint8",
          "name": "statusCode",
          "type": "uint8"
        }
      ],
      "name": "FlightStatusUpdated",
      "type": "event"
    },
    {
      "anonymous": false,
      "inputs": [
        {
          "indexed": false,
          "internalType": "address",
          "name": "oracle",
          "type": "address"
        }
      ],
      "name": "OracleRegistered",
      "type": "event"
    },
    {
      "anonymous": false,
      "inputs": [
        {
          "indexed": false,
          "internalType": "address",
          "name": "airline",
          "type": "address"
        },
        {
          "indexed": false,
          "internalType": "string",
          "name": "flight",
          "type": "string"
        },
        {
          "indexed": false,
          "internalType": "uint256",
          "name": "timestamp",
          "type": "uint256"
        },
        {
          "indexed": false,
          "internalType": "uint8",
          "name": "status",
          "type": "uint8"
        }
      ],
      "name": "OracleReport",
      "type": "event"
    },
    {
      "anonymous": false,
      "inputs": [
        {
          "indexed": false,
          "internalType": "uint8",
          "name": "index",
          "type": "uint8"
        },
        {
          "indexed": false,
          "internalType": "address",
          "name": "airline",
          "type": "address"
        },
        {
          "indexed": false,
          "internalType": "string",
          "name": "flight",
          "type": "string"
        },
        {
          "indexed": false,
          "internalType": "uint256",
          "name": "timestamp",
          "type": "uint256"
        }
      ],
      "name": "OracleRequest",
      "type": "event"
    },
    {
      "anonymous": false,
      "inputs": [
        {
          "indexed": true,
          "internalType": "address",
          "name": "previousOwner",
          "type": "address"
        },
        {
          "indexed": true,
          "internalType": "address",
          "name": "newOwner",
          "type": "address"
        }
      ],
      "name": "OwnershipTransferred",
      "type": "event"
    },
    {
      "anonymous": false,
      "inputs": [
        {
          "indexed": false,
          "internalType": "address",
          "name": "account",
          "type": "address"
        }
      ],
      "name": "Paused",
      "type": "event"
    },
    {
      "anonymous": false,
      "inputs": [
        {
          "indexed": false,
          "internalType": "address",
          "name": "account",
          "type": "address"
        }
      ],
      "name": "Unpaused",
      "type": "event"
    },
    {
      "stateMutability": "payable",
      "type": "fallback"
    },
    {
      "inputs": [],
      "name": "REGISTRATION_FEE",
      "outputs": [
        {
          "internalType": "uint256",
          "name": "",
          "type": "uint256"
        }
      ],
      "stateMutability": "view",
      "type": "function"
    },
    {
      "inputs": [
        {
          "internalType": "bytes32",
          "name": "flightKey",
          "type": "bytes32"
        }
      ],
      "name": "getFlight",
      "outputs": [
        {
          "internalType": "string",
          "name": "name",
          "type": "string"
        },
        {
          "internalType": "uint256",
          "name": "datetime",
          "type": "uint256"
        },
        {
          "internalType": "string",
          "name": "origin",
          "type": "string"
        },
        {
          "internalType": "string",
          "name": "destination",
          "type": "string"
        },
        {
          "internalType": "bool",
          "name": "isRegistered",
          "type": "bool"
        },
        {
          "internalType": "uint8",
          "name": "statusCode",
          "type": "uint8"
        },
        {
          "internalType": "uint256",
          "name": "updatedTimestamp",
          "type": "uint256"
        },
        {
          "internalType": "address",
          "name": "airline",
          "type": "address"
        }
      ],
      "stateMutability": "view",
      "type": "function"
    },
    {
      "inputs": [],
      "name": "getMyIndexes",
      "outputs": [
        {
          "internalType": "uint8[3]",
          "name": "",
          "type": "uint8[3]"
        }
      ],
      "stateMutability": "view",
      "type": "function"
    },
    {
      "inputs": [],
      "name": "owner",
      "outputs": [
        {
          "internalType": "address",
          "name": "",
          "type": "address"
        }
      ],
      "stateMutability": "view",
      "type": "function"
    },
    {
      "inputs": [],
      "name": "paused",
      "outputs": [
        {
          "internalType": "bool",
          "name": "",
          "type": "bool"
        }
      ],
      "stateMutability": "view",
      "type": "function"
    },
    {
      "inputs": [
        {
          "internalType": "address",
          "name": "airlineAddress",
          "type": "address"
        },
        {
          "internalType": "string",
          "name": "name",
          "type": "string"
        }
      ],
      "name": "registerAirline",
      "outputs": [],
      "stateMutability": "nonpayable",
      "type": "function"
    },
    {
      "inputs": [
        {
          "internalType": "bytes32",
          "name": "flightKey",
          "type": "bytes32"
        },
        {
          "internalType": "string",
          "name": "name",
          "type": "string"
        },
        {
          "internalType": "uint256",
          "name": "timestamp",
          "type": "uint256"
        },
        {
          "internalType": "string",
          "name": "origin",
          "type": "string"
        },
        {
          "internalType": "string",
          "name": "destination",
          "type": "string"
        }
      ],
      "name": "registerFlight",
      "outputs": [],
      "stateMutability": "nonpayable",
      "type": "function"
    },
    {
      "inputs": [],
      "name": "registerOracle",
      "outputs": [],
      "stateMutability": "payable",
      "type": "function"
    },
    {
      "inputs": [],
      "name": "renounceOwnership",
      "outputs": [],
      "stateMutability": "nonpayable",
      "type": "function"
    },
    {
      "inputs": [
        {
          "internalType": "address",
          "name": "dataContract",
          "type": "address"
        }
      ],
      "name": "setDataContract",
      "outputs": [],
      "stateMutability": "nonpayable",
      "type": "function"
    },
    {
      "inputs": [
        {
          "internalType": "bool",
          "name": "mode",
          "type": "bool"
        }
      ],
      "name": "setPausableStatus",
      "outputs": [],
      "stateMutability": "nonpayable",
      "type": "function"
    },
    {
      "inputs": [
        {
          "internalType": "uint8",
          "name": "index",
          "type": "uint8"
        },
        {
          "internalType": "address",
          "name": "airline",
          "type": "address"
        },
        {
          "internalType": "string",
          "name": "flight",
          "type": "string"
        },
        {
          "internalType": "uint256",
          "name": "timestamp",
          "type": "uint256"
        },
        {
          "internalType": "uint8",
          "name": "statusCode",
          "type": "uint8"
        }
      ],
      "name": "submitOracleResponse",
      "outputs": [],
      "stateMutability": "nonpayable",
      "type": "function"
    },
    {
      "inputs": [
        {
          "internalType": "address",
          "name": "newOwner",
          "type": "address"
        }
      ],
      "name": "transferOwnership",
      "outputs": [],
      "stateMutability": "nonpayable",
      "type": "function"
    },
    {
      "inputs": [
        {
          "internalType": "bytes32",
          "name": "flightKey",
          "type": "bytes32"
        },
        {
          "internalType": "uint8",
          "name": "statusCode",
          "type": "uint8"
        }
      ],
      "name": "updateFlightStatus",
      "outputs": [],
      "stateMutability": "nonpayable",
      "type": "function"
    },
    {
      "stateMutability": "payable",
      "type": "receive"
    }
  ],
  "bytecode": "0x60806040526040518061028001604052806040518060600160405280600060ff168152602001600160ff168152602001600260ff1681525081526020016040518060600160405280600360ff168152602001600460ff168152602001600560ff1681525081526020016040518060600160405280600660ff168152602001600760ff168152602001600860ff1681525081526020016040518060600160405280600960ff168152602001600060ff168152602001600160ff1681525081526020016040518060600160405280600260ff168152602001600360ff168152602001600460ff1681525081526020016040518060600160405280600560ff168152602001600660ff168152602001600760ff1681525081526020016040518060600160405280600860ff168152602001600960ff168152602001600060ff1681525081526020016040518060600160405280600160ff168152602001600260ff168152602001600360ff1681525081526020016040518060600160405280600460ff168152602001600560ff168152602001600660ff1681525081526020016040518060600160405280600760ff168152602001600860ff168152602001600960ff1681525081526020016040518060600160405280600060ff168152602001600160ff168152602001600260ff1681525081526020016040518060600160405280600360ff168152602001600460ff168152602001600560ff1681525081526020016040518060600160405280600660ff168152602001600760ff168152602001600860ff1681525081526020016040518060600160405280600960ff168152602001600060ff168152602001600160ff1681525081526020016040518060600160405280600260ff168152602001600360ff168152602001600460ff1681525081526020016040518060600160405280600560ff168152602001600660ff168152602001600760ff1681525081526020016040518060600160405280600860ff168152602001600960ff168152602001600060ff1681525081526020016040518060600160405280600160ff168152602001600260ff168152602001600360ff1681525081526020016040518060600160405280600460ff168152602001600560ff168152602001600660ff1681525081526020016040518060600160405280600760ff168152602001600860ff168152602001600960ff1681525081525060069060146200039092919062000554565b506000601a60006101000a81548160ff021916908360ff160217905550348015620003ba57600080fd5b506040516200317d3803806200317d8339818101604052810190620003e0919062000702565b80600073ffffffffffffffffffffffffffffffffffffffff168173ffffffffffffffffffffffffffffffffffffffff1603620004565760006040517f1e4fbdf70000000000000000000000000000000000000000000000000000000081526004016200044d919062000745565b60405180910390fd5b62000467816200049060201b60201c565b5060008060146101000a81548160ff021916908315150217905550600180819055505062000762565b60008060009054906101000a900473ffffffffffffffffffffffffffffffffffffffff169050816000806101000a81548173ffffffffffffffffffffffffffffffffffffffff021916908373ffffffffffffffffffffffffffffffffffffffff1602179055508173ffffffffffffffffffffffffffffffffffffffff168173ffffffffffffffffffffffffffffffffffffffff167f8be0079c531659141344cd1fd0a4f28419497f9722a3daafe3b4186f6b6457e060405160405180910390a35050565b826014810192821562000596579160200282015b82811115620005955782518290600362000584929190620005a9565b509160200191906001019062000568565b5b509050620005a591906200064a565b5090565b826003601f01602090048101928215620006375791602002820160005b838211156200060657835183826101000a81548160ff021916908360ff1602179055509260200192600101602081600001049283019260010302620005c6565b8015620006355782816101000a81549060ff021916905560010160208160000104928301926001030262000606565b505b50905062000646919062000672565b5090565b5b808211156200066e576000818162000664919062000691565b506001016200064b565b5090565b5b808211156200068d57600081600090555060010162000673565b5090565b5060009055565b600080fd5b600073ffffffffffffffffffffffffffffffffffffffff82169050919050565b6000620006ca826200069d565b9050919050565b620006dc81620006bd565b8114620006e857600080fd5b50565b600081519050620006fc81620006d1565b92915050565b6000602082840312156200071b576200071a62000698565b5b60006200072b84828501620006eb565b91505092915050565b6200073f81620006bd565b82525050565b60006020820190506200075c600083018462000734565b92915050565b612a0b80620007726000396000f3fe6080604052600436106100e15760003560e01c806364b4f7511161007f578063c10f270011610059578063c10f270014610261578063cac8f2921461028a578063ee38a749146102ce578063f2fde38b146102f7576100eb565b806364b4f751146101f4578063715018a61461021f5780638da5cb5b14610236576100eb565b80633522638b116100bb5780633522638b1461014c5780633f2aecea146101755780635c975abb1461019e5780635f1cc0e6146101c9576100eb565b806303959bb7146100f05780632caa285314610119578063339d259014610142576100eb565b366100eb57600080fd5b600080fd5b3480156100fc57600080fd5b5061011760048036038101906101129190611888565b610320565b005b34801561012557600080fd5b50610140600480360381019061013b9190611a67565b61036c565b005b61014a6104f8565b005b34801561015857600080fd5b50610173600480360381019061016e9190611b6e565b6106ab565b005b34801561018157600080fd5b5061019c60048036038101906101979190611bd4565b61071f565b005b3480156101aa57600080fd5b506101b3610809565b6040516101c09190611c23565b60405180910390f35b3480156101d557600080fd5b506101de61081f565b6040516101eb9190611ce9565b60405180910390f35b34801561020057600080fd5b5061020961095f565b6040516102169190611d13565b60405180910390f35b34801561022b57600080fd5b5061023461096b565b005b34801561024257600080fd5b5061024b61097f565b6040516102589190611d3d565b60405180910390f35b34801561026d57600080fd5b5061028860048036038101906102839190611d58565b6109a8565b005b34801561029657600080fd5b506102b160048036038101906102ac9190611def565b610dc6565b6040516102c5989796959493929190611eaa565b60405180910390f35b3480156102da57600080fd5b506102f560048036038101906102f09190611f9d565b611092565b005b34801561030357600080fd5b5061031e60048036038101906103199190611888565b61113a565b005b6103286111c0565b80600260006101000a81548173ffffffffffffffffffffffffffffffffffffffff021916908373ffffffffffffffffffffffffffffffffffffffff16021790555050565b604051806101000160405280858152602001848152602001848152602001838152602001828152602001600115158152602001600060ff1681526020013373ffffffffffffffffffffffffffffffffffffffff168152506003600087815260200190815260200160002060008201518160000190816103eb9190612209565b50602082015181600101556040820151816002015560608201518160030190816104159190612209565b50608082015181600401908161042b9190612209565b5060a08201518160050160006101000a81548160ff02191690831515021790555060c08201518160050160016101000a81548160ff021916908360ff16021790555060e08201518160050160026101000a81548173ffffffffffffffffffffffffffffffffffffffff021916908373ffffffffffffffffffffffffffffffffffffffff1602179055509050507f8e0f88a4762f63c2865ecc405499bd574dae2494d654c4be45fb8286517611b68560006040516104e99291906122ea565b60405180910390a15050505050565b670de0b6b3a7640000341015610543576040517f08c379a000000000000000000000000000000000000000000000000000000000815260040161053a9061235f565b60405180910390fd5b600460003373ffffffffffffffffffffffffffffffffffffffff1673ffffffffffffffffffffffffffffffffffffffff16815260200190815260200160002060000160009054906101000a900460ff16156105d3576040517f08c379a00000000000000000000000000000000000000000000000000000000081526004016105ca906123cb565b60405180910390fd5b60006105dd611247565b9050604051806040016040528060011515815260200182815250600460003373ffffffffffffffffffffffffffffffffffffffff1673ffffffffffffffffffffffffffffffffffffffff16815260200190815260200160002060008201518160000160006101000a81548160ff02191690831515021790555060208201518160010190600361066d92919061173d565b509050507fd9d9fdcc9f936c76b5aafe54fc3db5dcec0c6583c9ccc4abe91d17575c5145a5336040516106a09190611d3d565b60405180910390a150565b6106b36111c0565b8015156106be610809565b151503610700576040517f08c379a00000000000000000000000000000000000000000000000000000000081526004016106f79061245d565b60405180910390fd5b80156107135761070e6113dc565b61071c565b61071b61143f565b5b50565b6003600083815260200190815260200160002060050160009054906101000a900460ff16610782576040517f08c379a0000000000000000000000000000000000000000000000000000000008152600401610779906124c9565b60405180910390fd5b806003600084815260200190815260200160002060050160016101000a81548160ff021916908360ff1602179055504260036000848152602001908152602001600020600101819055507f6b7efd1d185714db0de1fb8acf2c5fba53efbdf80a89fe0385d209e3503adfc582826040516107fd9291906122ea565b60405180910390a15050565b60008060149054906101000a900460ff16905090565b6108276117d7565b600460003373ffffffffffffffffffffffffffffffffffffffff1673ffffffffffffffffffffffffffffffffffffffff16815260200190815260200160002060000160009054906101000a900460ff166108b6576040517f08c379a00000000000000000000000000000000000000000000000000000000081526004016108ad90612535565b60405180910390fd5b600460003373ffffffffffffffffffffffffffffffffffffffff1673ffffffffffffffffffffffffffffffffffffffff168152602001908152602001600020600101600380602002604051908101604052809291908260038015610955576020028201916000905b82829054906101000a900460ff1660ff168152602001906001019060208260000104928301926001038202915080841161091e5790505b5050505050905090565b670de0b6b3a764000081565b6109736111c0565b61097d60006114a1565b565b60008060009054906101000a900473ffffffffffffffffffffffffffffffffffffffff16905090565b600460003373ffffffffffffffffffffffffffffffffffffffff1673ffffffffffffffffffffffffffffffffffffffff16815260200190815260200160002060000160009054906101000a900460ff16610a37576040517f08c379a0000000000000000000000000000000000000000000000000000000008152600401610a2e906125a1565b60405180910390fd5b8460ff16600460003373ffffffffffffffffffffffffffffffffffffffff1673ffffffffffffffffffffffffffffffffffffffff168152602001908152602001600020600101600060038110610a9057610a8f6125c1565b5b602091828204019190069054906101000a900460ff1660ff161480610b2457508460ff16600460003373ffffffffffffffffffffffffffffffffffffffff1673ffffffffffffffffffffffffffffffffffffffff168152602001908152602001600020600101600160038110610b0957610b086125c1565b5b602091828204019190069054906101000a900460ff1660ff16145b80610b9e57508460ff16600460003373ffffffffffffffffffffffffffffffffffffffff1673ffffffffffffffffffffffffffffffffffffffff168152602001908152602001600020600101600260038110610b8357610b826125c1565b5b602091828204019190069054906101000a900460ff1660ff16145b610bdd576040517f08c379a0000000000000000000000000000000000000000000000000000000008152600401610bd490612662565b60405180910390fd5b600085858585604051602001610bf6949392919061275d565b6040516020818303038152906040528051906020012090506005600082815260200190815260200160002060000160149054906101000a900460ff16610c71576040517f08c379a0000000000000000000000000000000000000000000000000000000008152600401610c6890612819565b60405180910390fd5b6005600082815260200190815260200160002060010160008360ff1660ff168152602001908152602001600020339080600181540180825580915050600190039060005260206000200160009091909190916101000a81548173ffffffffffffffffffffffffffffffffffffffff021916908373ffffffffffffffffffffffffffffffffffffffff1602179055507f43c853095c2752648493c88b4baac4d580d2594ffb00c6f1d4242d844514f78385858585604051610d349493929190612839565b60405180910390a160036005600083815260200190815260200160002060010160008460ff1660ff1681526020019081526020016000208054905010610dbe577fe23f5229de535c091e3b7bec2665f5d698192d3b31393066e8987b7a05076b6c85858585604051610da99493929190612839565b60405180910390a1610dbd84828585611565565b5b505050505050565b606060006060806000806000806000600360008b815260200190815260200160002060405180610100016040529081600082018054610e049061202c565b80601f0160208091040260200160405190810160405280929190818152602001828054610e309061202c565b8015610e7d5780601f10610e5257610100808354040283529160200191610e7d565b820191906000526020600020905b815481529060010190602001808311610e6057829003601f168201915b505050505081526020016001820154815260200160028201548152602001600382018054610eaa9061202c565b80601f0160208091040260200160405190810160405280929190818152602001828054610ed69061202c565b8015610f235780601f10610ef857610100808354040283529160200191610f23565b820191906000526020600020905b815481529060010190602001808311610f0657829003601f168201915b50505050508152602001600482018054610f3c9061202c565b80601f0160208091040260200160405190810160405280929190818152602001828054610f689061202c565b8015610fb55780601f10610f8a57610100808354040283529160200191610fb5565b820191906000526020600020905b815481529060010190602001808311610f9857829003601f168201915b505050505081526020016005820160009054906101000a900460ff161515151581526020016005820160019054906101000a900460ff1660ff1660ff1681526020016005820160029054906101000a900473ffffffffffffffffffffffffffffffffffffffff1673ffffffffffffffffffffffffffffffffffffffff1673ffffffffffffffffffffffffffffffffffffffff1681525050905080600001518160400151826060015183608001518460a001518560c0015186602001518760e001519850985098509850985098509850985050919395975091939597565b600260009054906101000a900473ffffffffffffffffffffffffffffffffffffffff1673ffffffffffffffffffffffffffffffffffffffff1663ee38a7498484846040518463ffffffff1660e01b81526004016110f1939291906128b2565b6020604051808303816000875af1158015611110573d6000803e3d6000fd5b505050506040513d601f19601f8201168201806040525081019061113491906128f9565b50505050565b6111426111c0565b600073ffffffffffffffffffffffffffffffffffffffff168173ffffffffffffffffffffffffffffffffffffffff16036111b45760006040517f1e4fbdf70000000000000000000000000000000000000000000000000000000081526004016111ab9190611d3d565b60405180910390fd5b6111bd816114a1565b50565b6111c86116b4565b73ffffffffffffffffffffffffffffffffffffffff166111e661097f565b73ffffffffffffffffffffffffffffffffffffffff1614611245576112096116b4565b6040517f118cdaa700000000000000000000000000000000000000000000000000000000815260040161123c9190611d3d565b60405180910390fd5b565b61124f6117d7565b6000601a60009054906101000a900460ff1690506000604051806060016040528060068460ff1660148110611287576112866125c1565b5b0160006003811061129b5761129a6125c1565b5b602091828204019190069054906101000a900460ff1660ff1660ff16815260200160068460ff16601481106112d3576112d26125c1565b5b016001600381106112e7576112e66125c1565b5b602091828204019190069054906101000a900460ff1660ff1660ff16815260200160068460ff166014811061131f5761131e6125c1565b5b01600260038110611333576113326125c1565b5b602091828204019190069054906101000a900460ff1660ff1660ff16815250905060146001601a60009054906101000a900460ff166113729190612955565b60ff160361139b576000601a60006101000a81548160ff021916908360ff1602179055506113d4565b601a600081819054906101000a900460ff16809291906113ba9061298a565b91906101000a81548160ff021916908360ff160217905550505b809250505090565b6113e46116bc565b6001600060146101000a81548160ff0219169083151502179055507f62e78cea01bee320cd4e420270b5ea74000d11b0c9f74754ebdbfc544b05a2586114286116b4565b6040516114359190611d3d565b60405180910390a1565b6114476116fd565b60008060146101000a81548160ff0219169083151502179055507f5db9ee0a495bf2e6ff9c91a7834c1ba4fdd244a5e8aa4e537bd38aeae4b073aa61148a6116b4565b6040516114979190611d3d565b60405180910390a1565b60008060009054906101000a900473ffffffffffffffffffffffffffffffffffffffff169050816000806101000a81548173ffffffffffffffffffffffffffffffffffffffff021916908373ffffffffffffffffffffffffffffffffffffffff1602179055508173ffffffffffffffffffffffffffffffffffffffff168173ffffffffffffffffffffffffffffffffffffffff167f8be0079c531659141344cd1fd0a4f28419497f9722a3daafe3b4186f6b6457e060405160405180910390a35050565b6003600084815260200190815260200160002060050160009054906101000a900460ff166115c8576040517f08c379a00000000000000000000000000000000000000000000000000000000081526004016115bf906124c9565b60405180910390fd5b816003600085815260200190815260200160002060010181905550806003600085815260200190815260200160002060050160016101000a81548160ff021916908360ff160217905550601460ff168160ff16036116ae57600260009054906101000a900473ffffffffffffffffffffffffffffffffffffffff1673ffffffffffffffffffffffffffffffffffffffff16633fcf1cf4856040518263ffffffff1660e01b815260040161167b91906129b3565b600060405180830381600087803b15801561169557600080fd5b505af11580156116a9573d6000803e3d6000fd5b505050505b50505050565b600033905090565b6116c4610809565b156116fb576040517fd93c066500000000000000000000000000000000000000000000000000000000815260040160405180910390fd5b565b611705610809565b61173b576040517f8dfc202b00000000000000000000000000000000000000000000000000000000815260040160405180910390fd5b565b826003601f016020900481019282156117c65791602002820160005b8382111561179757835183826101000a81548160ff021916908360ff1602179055509260200192600101602081600001049283019260010302611759565b80156117c45782816101000a81549060ff0219169055600101602081600001049283019260010302611797565b505b5090506117d391906117f9565b5090565b6040518060600160405280600390602082028036833780820191505090505090565b5b808211156118125760008160009055506001016117fa565b5090565b6000604051905090565b600080fd5b600080fd5b600073ffffffffffffffffffffffffffffffffffffffff82169050919050565b60006118558261182a565b9050919050565b6118658161184a565b811461187057600080fd5b50565b6000813590506118828161185c565b92915050565b60006020828403121561189e5761189d611820565b5b60006118ac84828501611873565b91505092915050565b6000819050919050565b6118c8816118b5565b81146118d357600080fd5b50565b6000813590506118e5816118bf565b92915050565b600080fd5b600080fd5b6000601f19601f8301169050919050565b7f4e487b7100000000000000000000000000000000000000000000000000000000600052604160045260246000fd5b61193e826118f5565b810181811067ffffffffffffffff8211171561195d5761195c611906565b5b80604052505050565b6000611970611816565b905061197c8282611935565b919050565b600067ffffffffffffffff82111561199c5761199b611906565b5b6119a5826118f5565b9050602081019050919050565b82818337600083830152505050565b60006119d46119cf84611981565b611966565b9050828152602081018484840111156119f0576119ef6118f0565b5b6119fb8482856119b2565b509392505050565b600082601f830112611a1857611a176118eb565b5b8135611a288482602086016119c1565b91505092915050565b6000819050919050565b611a4481611a31565b8114611a4f57600080fd5b50565b600081359050611a6181611a3b565b92915050565b600080600080600060a08688031215611a8357611a82611820565b5b6000611a91888289016118d6565b955050602086013567ffffffffffffffff811115611ab257611ab1611825565b5b611abe88828901611a03565b9450506040611acf88828901611a52565b935050606086013567ffffffffffffffff811115611af057611aef611825565b5b611afc88828901611a03565b925050608086013567ffffffffffffffff811115611b1d57611b1c611825565b5b611b2988828901611a03565b9150509295509295909350565b60008115159050919050565b611b4b81611b36565b8114611b5657600080fd5b50565b600081359050611b6881611b42565b92915050565b600060208284031215611b8457611b83611820565b5b6000611b9284828501611b59565b91505092915050565b600060ff82169050919050565b611bb181611b9b565b8114611bbc57600080fd5b50565b600081359050611bce81611ba8565b92915050565b60008060408385031215611beb57611bea611820565b5b6000611bf9858286016118d6565b9250506020611c0a85828601611bbf565b9150509250929050565b611c1d81611b36565b82525050565b6000602082019050611c386000830184611c14565b92915050565b600060039050919050565b600081905092915050565b6000819050919050565b611c6781611b9b565b82525050565b6000611c798383611c5e565b60208301905092915050565b6000602082019050919050565b611c9b81611c3e565b611ca58184611c49565b9250611cb082611c54565b8060005b83811015611ce1578151611cc88782611c6d565b9650611cd383611c85565b925050600181019050611cb4565b505050505050565b6000606082019050611cfe6000830184611c92565b92915050565b611d0d81611a31565b82525050565b6000602082019050611d286000830184611d04565b92915050565b611d378161184a565b82525050565b6000602082019050611d526000830184611d2e565b92915050565b600080600080600060a08688031215611d7457611d73611820565b5b6000611d8288828901611bbf565b9550506020611d9388828901611873565b945050604086013567ffffffffffffffff811115611db457611db3611825565b5b611dc088828901611a03565b9350506060611dd188828901611a52565b9250506080611de288828901611bbf565b9150509295509295909350565b600060208284031215611e0557611e04611820565b5b6000611e13848285016118d6565b91505092915050565b600081519050919050565b600082825260208201905092915050565b60005b83811015611e56578082015181840152602081019050611e3b565b60008484015250505050565b6000611e6d82611e1c565b611e778185611e27565b9350611e87818560208601611e38565b611e90816118f5565b840191505092915050565b611ea481611b9b565b82525050565b6000610100820190508181036000830152611ec5818b611e62565b9050611ed4602083018a611d04565b8181036040830152611ee68189611e62565b90508181036060830152611efa8188611e62565b9050611f096080830187611c14565b611f1660a0830186611e9b565b611f2360c0830185611d04565b611f3060e0830184611d2e565b9998505050505050505050565b600080fd5b600080fd5b60008083601f840112611f5d57611f5c6118eb565b5b8235905067ffffffffffffffff811115611f7a57611f79611f3d565b5b602083019150836001820283011115611f9657611f95611f42565b5b9250929050565b600080600060408486031215611fb657611fb5611820565b5b6000611fc486828701611873565b935050602084013567ffffffffffffffff811115611fe557611fe4611825565b5b611ff186828701611f47565b92509250509250925092565b7f4e487b7100000000000000000000000000000000000000000000000000000000600052602260045260246000fd5b6000600282049050600182168061204457607f821691505b60208210810361205757612056611ffd565b5b50919050565b60008190508160005260206000209050919050565b60006020601f8301049050919050565b600082821b905092915050565b6000600883026120bf7fffffffffffffffffffffffffffffffffffffffffffffffffffffffffffffffff82612082565b6120c98683612082565b95508019841693508086168417925050509392505050565b6000819050919050565b60006121066121016120fc84611a31565b6120e1565b611a31565b9050919050565b6000819050919050565b612120836120eb565b61213461212c8261210d565b84845461208f565b825550505050565b600090565b61214961213c565b612154818484612117565b505050565b5b818110156121785761216d600082612141565b60018101905061215a565b5050565b601f8211156121bd5761218e8161205d565b61219784612072565b810160208510156121a6578190505b6121ba6121b285612072565b830182612159565b50505b505050565b600082821c905092915050565b60006121e0600019846008026121c2565b1980831691505092915050565b60006121f983836121cf565b9150826002028217905092915050565b61221282611e1c565b67ffffffffffffffff81111561222b5761222a611906565b5b612235825461202c565b61224082828561217c565b600060209050601f8311600181146122735760008415612261578287015190505b61226b85826121ed565b8655506122d3565b601f1984166122818661205d565b60005b828110156122a957848901518255600182019150602085019450602081019050612284565b868310156122c657848901516122c2601f8916826121cf565b8355505b6001600288020188555050505b505050505050565b6122e4816118b5565b82525050565b60006040820190506122ff60008301856122db565b61230c6020830184611e9b565b9392505050565b7f526567697374726174696f6e2066656520697320726571756972656400000000600082015250565b6000612349601c83611e27565b915061235482612313565b602082019050919050565b600060208201905081810360008301526123788161233c565b9050919050565b7f4f7261636c6520697320616c7265616479207265676973746572656400000000600082015250565b60006123b5601c83611e27565b91506123c08261237f565b602082019050919050565b600060208201905081810360008301526123e4816123a8565b9050919050565b7f436f6e747261637420697320616c726561647920696e2074686520737461746560008201527f207265717565737465642e000000000000000000000000000000000000000000602082015250565b6000612447602b83611e27565b9150612452826123eb565b604082019050919050565b600060208201905081810360008301526124768161243a565b9050919050565b7f466c69676874206973206e6f7420726567697374657265642e00000000000000600082015250565b60006124b3601983611e27565b91506124be8261247d565b602082019050919050565b600060208201905081810360008301526124e2816124a6565b9050919050565b7f4e6f74207265676973746572656420617320616e206f7261636c650000000000600082015250565b600061251f601b83611e27565b915061252a826124e9565b602082019050919050565b6000602082019050818103600083015261254e81612512565b9050919050565b7f4f7261636c65206973206e6f7420726567697374657265640000000000000000600082015250565b600061258b601883611e27565b915061259682612555565b602082019050919050565b600060208201905081810360008301526125ba8161257e565b9050919050565b7f4e487b7100000000000000000000000000000000000000000000000000000000600052603260045260246000fd5b7f496e64657820646f6573206e6f74206d61746368206f7261636c65207265717560008201527f6573740000000000000000000000000000000000000000000000000000000000602082015250565b600061264c602383611e27565b9150612657826125f0565b604082019050919050565b6000602082019050818103600083015261267b8161263f565b9050919050565b60008160f81b9050919050565b600061269a82612682565b9050919050565b6126b26126ad82611b9b565b61268f565b82525050565b60008160601b9050919050565b60006126d0826126b8565b9050919050565b60006126e2826126c5565b9050919050565b6126fa6126f58261184a565b6126d7565b82525050565b600081905092915050565b600061271682611e1c565b6127208185612700565b9350612730818560208601611e38565b80840191505092915050565b6000819050919050565b61275761275282611a31565b61273c565b82525050565b600061276982876126a1565b60018201915061277982866126e9565b601482019150612789828561270b565b91506127958284612746565b60208201915081905095945050505050565b7f466c69676874206f722074696d657374616d7020646f206e6f74206d6174636860008201527f206f7261636c6520726571756573740000000000000000000000000000000000602082015250565b6000612803602f83611e27565b915061280e826127a7565b604082019050919050565b60006020820190508181036000830152612832816127f6565b9050919050565b600060808201905061284e6000830187611d2e565b81810360208301526128608186611e62565b905061286f6040830185611d04565b61287c6060830184611e9b565b95945050505050565b60006128918385611e27565b935061289e8385846119b2565b6128a7836118f5565b840190509392505050565b60006040820190506128c76000830186611d2e565b81810360208301526128da818486612885565b9050949350505050565b6000815190506128f381611b42565b92915050565b60006020828403121561290f5761290e611820565b5b600061291d848285016128e4565b91505092915050565b7f4e487b7100000000000000000000000000000000000000000000000000000000600052601160045260246000fd5b600061296082611b9b565b915061296b83611b9b565b9250828201905060ff81111561298457612983612926565b5b92915050565b600061299582611b9b565b915060ff82036129a8576129a7612926565b5b600182019050919050565b600060208201905081810360008301526129cd8184611e62565b90509291505056fea26469706673582212208a727d5259d4f8382d4f1553d28e24ac6d6921859f25b973db4ae3f541e279d664736f6c63430008180033",
  "linkReferences": {},
  "deployedLinkReferences": {}
}