{
  "_format": "hh-sol-artifact-1",
  "contractName": "FlightSuretyData",
  "sourceName": "contracts/FlightSuretyData.sol",
  "abi": [
    {
      "inputs": [
        {
          "internalType": "address",
          "name": "initialOwner",
          "type": "address"
        },
        {
          "internalType": "address",
          "name": "firstAirline",
          "type": "address"
        }
      ],
      "stateMutability": "nonpayable",
      "type": "constructor"
    },
    {
      "inputs": [],
      "name": "EnforcedPause",
      "type": "error"
    },
    {
      "inputs": [],
      "name": "ExpectedPause",
      "type": "error"
    },
    {
      "inputs": [
        {
          "internalType": "address",
          "name": "owner",
          "type": "address"
        }
      ],
      "name": "OwnableInvalidOwner",
      "type": "error"
    },
    {
      "inputs": [
        {
          "internalType": "address",
          "name": "account",
          "type": "address"
        }
      ],
      "name": "OwnableUnauthorizedAccount",
      "type": "error"
    },
    {
      "inputs": [],
      "name": "ReentrancyGuardReentrantCall",
      "type": "error"
    },
    {
      "anonymous": false,
      "inputs": [
        {
          "indexed": false,
          "internalType": "address",
          "name": "airline",
          "type": "address"
        }
      ],
      "name": "AirlineFunded",
      "type": "event"
    },
    {
      "anonymous": false,
      "inputs": [
        {
          "indexed": false,
          "internalType": "address",
          "name": "airline",
          "type": "address"
        }
      ],
      "name": "AirlineRegistered",
      "type": "event"
    },
    {
      "anonymous": false,
      "inputs": [
        {
          "indexed": false,
          "internalType": "address",
          "name": "contractAddress",
          "type": "address"
        }
      ],
      "name": "AuthorizedContract",
      "type": "event"
    },
    {
      "anonymous": false,
      "inputs": [
        {
          "indexed": false,
          "internalType": "address",
          "name": "contractAddress",
          "type": "address"
        }
      ],
      "name": "DeauthorizedContract",
      "type": "event"
    },
    {
      "anonymous": false,
      "inputs": [
        {
          "indexed": false,
          "internalType": "bytes32",
          "name": "flightKey",
          "type": "bytes32"
        },
        {
          "indexed": false,
          "internalType": "uint8",
          "name": "statusCode",
          "type": "uint8"
        }
      ],
      "name": "FlightRegistered",
      "type": "event"
    },
    {
      "anonymous": false,
      "inputs": [
        {
          "indexed": false,
          "internalType": "address",
          "name": "airline",
          "type": "address"
        },
        {
          "indexed": false,
          "internalType": "string",
          "name": "flight",
          "type": "string"
        },
        {
          "indexed": false,
          "internalType": "uint256",
          "name": "timestamp",
          "type": "uint256"
        },
        {
          "indexed": false,
          "internalType": "uint8",
          "name": "status",
          "type": "uint8"
        }
      ],
      "name": "FlightStatusInfo",
      "type": "event"
    },
    {
      "anonymous": false,
      "inputs": [
        {
          "indexed": false,
          "internalType": "bytes32",
          "name": "flightKey",
          "type": "bytes32"
        },
        {
          "indexed": false,
          "internalType": "uint8",
          "name": "statusCode",
          "type": "uint8"
        }
      ],
      "name": "FlightStatusUpdated",
      "type": "event"
    },
    {
      "anonymous": false,
      "inputs": [
        {
          "indexed": false,
          "internalType": "address",
          "name": "passenger",
          "type": "address"
        },
        {
          "indexed": false,
          "internalType": "uint256",
          "name": "amount",
          "type": "uint256"
        }
      ],
      "name": "InsuranceCredited",
      "type": "event"
    },
    {
      "anonymous": false,
      "inputs": [
        {
          "indexed": false,
          "internalType": "address",
          "name": "passenger",
          "type": "address"
        },
        {
          "indexed": false,
          "internalType": "bytes32",
          "name": "flightKey",
          "type": "bytes32"
        }
      ],
      "name": "InsurancePurchased",
      "type": "event"
    },
    {
      "anonymous": false,
      "inputs": [
        {
          "indexed": false,
          "internalType": "address",
          "name": "passenger",
          "type": "address"
        },
        {
          "indexed": false,
          "internalType": "uint256",
          "name": "amount",
          "type": "uint256"
        }
      ],
      "name": "InsuranceWithdrawn",
      "type": "event"
    },
    {
      "anonymous": false,
      "inputs": [
        {
          "indexed": false,
          "internalType": "address",
          "name": "oracle",
          "type": "address"
        }
      ],
      "name": "OracleRegistered",
      "type": "event"
    },
    {
      "anonymous": false,
      "inputs": [
        {
          "indexed": false,
          "internalType": "address",
          "name": "airline",
          "type": "address"
        },
        {
          "indexed": false,
          "internalType": "string",
          "name": "flight",
          "type": "string"
        },
        {
          "indexed": false,
          "internalType": "uint256",
          "name": "timestamp",
          "type": "uint256"
        },
        {
          "indexed": false,
          "internalType": "uint8",
          "name": "status",
          "type": "uint8"
        }
      ],
      "name": "OracleReport",
      "type": "event"
    },
    {
      "anonymous": false,
      "inputs": [
        {
          "indexed": false,
          "internalType": "uint8",
          "name": "index",
          "type": "uint8"
        },
        {
          "indexed": false,
          "internalType": "address",
          "name": "airline",
          "type": "address"
        },
        {
          "indexed": false,
          "internalType": "string",
          "name": "flight",
          "type": "string"
        },
        {
          "indexed": false,
          "internalType": "uint256",
          "name": "timestamp",
          "type": "uint256"
        }
      ],
      "name": "OracleRequest",
      "type": "event"
    },
    {
      "anonymous": false,
      "inputs": [
        {
          "indexed": true,
          "internalType": "address",
          "name": "previousOwner",
          "type": "address"
        },
        {
          "indexed": true,
          "internalType": "address",
          "name": "newOwner",
          "type": "address"
        }
      ],
      "name": "OwnershipTransferred",
      "type": "event"
    },
    {
      "anonymous": false,
      "inputs": [
        {
          "indexed": false,
          "internalType": "address",
          "name": "account",
          "type": "address"
        }
      ],
      "name": "Paused",
      "type": "event"
    },
    {
      "anonymous": false,
      "inputs": [
        {
          "indexed": false,
          "internalType": "address",
          "name": "account",
          "type": "address"
        }
      ],
      "name": "Unpaused",
      "type": "event"
    },
    {
      "stateMutability": "payable",
      "type": "fallback"
    },
    {
      "inputs": [],
      "name": "REGISTRATION_FEE",
      "outputs": [
        {
          "internalType": "uint256",
          "name": "",
          "type": "uint256"
        }
      ],
      "stateMutability": "view",
      "type": "function"
    },
    {
      "inputs": [
        {
          "internalType": "address",
          "name": "contractAddress",
          "type": "address"
        }
      ],
      "name": "authorizeContract",
      "outputs": [],
      "stateMutability": "nonpayable",
      "type": "function"
    },
    {
      "inputs": [
        {
          "internalType": "bytes32",
          "name": "flightKey",
          "type": "bytes32"
        }
      ],
      "name": "creditInsurees",
      "outputs": [],
      "stateMutability": "nonpayable",
      "type": "function"
    },
    {
      "inputs": [
        {
          "internalType": "address",
          "name": "contractAddress",
          "type": "address"
        }
      ],
      "name": "deauthorizeContract",
      "outputs": [],
      "stateMutability": "nonpayable",
      "type": "function"
    },
    {
      "inputs": [
        {
          "internalType": "bytes32",
          "name": "",
          "type": "bytes32"
        }
      ],
      "name": "flights",
      "outputs": [
        {
          "internalType": "string",
          "name": "name",
          "type": "string"
        },
        {
          "internalType": "uint256",
          "name": "updatedTimestamp",
          "type": "uint256"
        },
        {
          "internalType": "uint256",
          "name": "datetime",
          "type": "uint256"
        },
        {
          "internalType": "string",
          "name": "origin",
          "type": "string"
        },
        {
          "internalType": "string",
          "name": "destination",
          "type": "string"
        },
        {
          "internalType": "bool",
          "name": "isRegistered",
          "type": "bool"
        },
        {
          "internalType": "uint8",
          "name": "statusCode",
          "type": "uint8"
        },
        {
          "internalType": "address",
          "name": "airline",
          "type": "address"
        }
      ],
      "stateMutability": "view",
      "type": "function"
    },
    {
      "inputs": [],
      "name": "fundAirline",
      "outputs": [],
      "stateMutability": "payable",
      "type": "function"
    },
    {
      "inputs": [],
      "name": "getAirlineCount",
      "outputs": [
        {
          "internalType": "uint256",
          "name": "",
          "type": "uint256"
        }
      ],
      "stateMutability": "view",
      "type": "function"
    },
    {
      "inputs": [
        {
          "internalType": "address",
          "name": "airline",
          "type": "address"
        }
      ],
      "name": "getAirlineInfo",
      "outputs": [
        {
          "components": [
            {
              "internalType": "bool",
              "name": "isRegistered",
              "type": "bool"
            },
            {
              "internalType": "bool",
              "name": "isFunded",
              "type": "bool"
            }
          ],
          "internalType": "struct FlightSuretyData.Airline",
          "name": "",
          "type": "tuple"
        }
      ],
      "stateMutability": "view",
      "type": "function"
    },
    {
      "inputs": [
        {
          "internalType": "bytes32",
          "name": "flightKey",
          "type": "bytes32"
        }
      ],
      "name": "getFlight",
      "outputs": [
        {
          "internalType": "string",
          "name": "name",
          "type": "string"
        },
        {
          "internalType": "bool",
          "name": "isRegistered",
          "type": "bool"
        },
        {
          "internalType": "uint8",
          "name": "statusCode",
          "type": "uint8"
        },
        {
          "internalType": "uint256",
          "name": "updatedTimestamp",
          "type": "uint256"
        },
        {
          "internalType": "address",
          "name": "airline",
          "type": "address"
        }
      ],
      "stateMutability": "view",
      "type": "function"
    },
    {
      "inputs": [],
      "name": "getInsuranceLimit",
      "outputs": [
        {
          "internalType": "uint256",
          "name": "",
          "type": "uint256"
        }
      ],
      "stateMutability": "pure",
      "type": "function"
    },
    {
      "inputs": [],
      "name": "getInsuranceRatePercent",
      "outputs": [
        {
          "internalType": "uint256",
          "name": "",
          "type": "uint256"
        }
      ],
      "stateMutability": "pure",
      "type": "function"
    },
    {
      "inputs": [],
      "name": "getMyIndexes",
      "outputs": [
        {
          "internalType": "uint8[3]",
          "name": "",
          "type": "uint8[3]"
        }
      ],
      "stateMutability": "view",
      "type": "function"
    },
    {
      "inputs": [
        {
          "internalType": "address",
          "name": "passenger",
          "type": "address"
        }
      ],
      "name": "getPassengerCredit",
      "outputs": [
        {
          "internalType": "uint256",
          "name": "",
          "type": "uint256"
        }
      ],
      "stateMutability": "view",
      "type": "function"
    },
    {
      "inputs": [
        {
          "internalType": "address",
          "name": "airline",
          "type": "address"
        }
      ],
      "name": "getVotesForAirline",
      "outputs": [
        {
          "internalType": "uint256",
          "name": "",
          "type": "uint256"
        }
      ],
      "stateMutability": "view",
      "type": "function"
    },
    {
      "inputs": [],
      "name": "getVotesThreshold",
      "outputs": [
        {
          "internalType": "uint256",
          "name": "",
          "type": "uint256"
        }
      ],
      "stateMutability": "view",
      "type": "function"
    },
    {
      "inputs": [],
      "name": "owner",
      "outputs": [
        {
          "internalType": "address",
          "name": "",
          "type": "address"
        }
      ],
      "stateMutability": "view",
      "type": "function"
    },
    {
      "inputs": [],
      "name": "paused",
      "outputs": [
        {
          "internalType": "bool",
          "name": "",
          "type": "bool"
        }
      ],
      "stateMutability": "view",
      "type": "function"
    },
    {
      "inputs": [
        {
          "internalType": "bytes32",
          "name": "flightKey",
          "type": "bytes32"
        }
      ],
      "name": "purchaseInsurance",
      "outputs": [],
      "stateMutability": "payable",
      "type": "function"
    },
    {
      "inputs": [
        {
          "internalType": "address",
          "name": "airline",
          "type": "address"
        }
      ],
      "name": "registerAirline",
      "outputs": [],
      "stateMutability": "nonpayable",
      "type": "function"
    },
    {
      "inputs": [
        {
          "internalType": "string",
          "name": "name",
          "type": "string"
        },
        {
          "internalType": "uint256",
          "name": "timestamp",
          "type": "uint256"
        },
        {
          "internalType": "string",
          "name": "origin",
          "type": "string"
        },
        {
          "internalType": "string",
          "name": "destination",
          "type": "string"
        }
      ],
      "name": "registerFlight",
      "outputs": [],
      "stateMutability": "nonpayable",
      "type": "function"
    },
    {
      "inputs": [],
      "name": "registerOracle",
      "outputs": [],
      "stateMutability": "payable",
      "type": "function"
    },
    {
      "inputs": [],
      "name": "renounceOwnership",
      "outputs": [],
      "stateMutability": "nonpayable",
      "type": "function"
    },
    {
      "inputs": [
        {
          "internalType": "bool",
          "name": "mode",
          "type": "bool"
        }
      ],
      "name": "setPausableStatus",
      "outputs": [],
      "stateMutability": "nonpayable",
      "type": "function"
    },
    {
      "inputs": [
        {
          "internalType": "uint8",
          "name": "index",
          "type": "uint8"
        },
        {
          "internalType": "address",
          "name": "airline",
          "type": "address"
        },
        {
          "internalType": "string",
          "name": "flight",
          "type": "string"
        },
        {
          "internalType": "uint256",
          "name": "timestamp",
          "type": "uint256"
        },
        {
          "internalType": "uint8",
          "name": "statusCode",
          "type": "uint8"
        }
      ],
      "name": "submitOracleResponse",
      "outputs": [],
      "stateMutability": "nonpayable",
      "type": "function"
    },
    {
      "inputs": [
        {
          "internalType": "address",
          "name": "newOwner",
          "type": "address"
        }
      ],
      "name": "transferOwnership",
      "outputs": [],
      "stateMutability": "nonpayable",
      "type": "function"
    },
    {
      "inputs": [
        {
          "internalType": "bytes32",
          "name": "flightKey",
          "type": "bytes32"
        },
        {
          "internalType": "uint8",
          "name": "statusCode",
          "type": "uint8"
        }
      ],
      "name": "updateFlightStatus",
      "outputs": [],
      "stateMutability": "nonpayable",
      "type": "function"
    },
    {
      "inputs": [],
      "name": "withdrawCredit",
      "outputs": [],
      "stateMutability": "nonpayable",
      "type": "function"
    },
    {
      "stateMutability": "payable",
      "type": "receive"
    }
  ],
  "bytecode": "0x608060405260006002556000600960006101000a81548160ff021916908360ff1602179055503480156200003257600080fd5b5060405162004c7c38038062004c7c8339818101604052810190620000589190620002ee565b81600073ffffffffffffffffffffffffffffffffffffffff168173ffffffffffffffffffffffffffffffffffffffff1603620000ce5760006040517f1e4fbdf7000000000000000000000000000000000000000000000000000000008152600401620000c5919062000346565b60405180910390fd5b620000df81620001c060201b60201c565b5060008060146101000a81548160ff02191690831515021790555060018081905550604051806040016040528060011515815260200160001515815250600460008373ffffffffffffffffffffffffffffffffffffffff1673ffffffffffffffffffffffffffffffffffffffff16815260200190815260200160002060008201518160000160006101000a81548160ff02191690831515021790555060208201518160000160016101000a81548160ff02191690831515021790555090505060026000815480929190620001b3906200039c565b91905055505050620003e9565b60008060009054906101000a900473ffffffffffffffffffffffffffffffffffffffff169050816000806101000a81548173ffffffffffffffffffffffffffffffffffffffff021916908373ffffffffffffffffffffffffffffffffffffffff1602179055508173ffffffffffffffffffffffffffffffffffffffff168173ffffffffffffffffffffffffffffffffffffffff167f8be0079c531659141344cd1fd0a4f28419497f9722a3daafe3b4186f6b6457e060405160405180910390a35050565b600080fd5b600073ffffffffffffffffffffffffffffffffffffffff82169050919050565b6000620002b68262000289565b9050919050565b620002c881620002a9565b8114620002d457600080fd5b50565b600081519050620002e881620002bd565b92915050565b6000806040838503121562000308576200030762000284565b5b60006200031885828601620002d7565b92505060206200032b85828601620002d7565b9150509250929050565b6200034081620002a9565b82525050565b60006020820190506200035d600083018462000335565b92915050565b7f4e487b7100000000000000000000000000000000000000000000000000000000600052601160045260246000fd5b6000819050919050565b6000620003a98262000392565b91507fffffffffffffffffffffffffffffffffffffffffffffffffffffffffffffffff8203620003de57620003dd62000363565b5b600182019050919050565b61488380620003f96000396000f3fe6080604052600436106101a05760003560e01c8063720c7cbb116100ec578063c36f38741161008a578063cc2f6eba11610064578063cc2f6eba1461056a578063d88641e614610593578063da2cad88146105be578063f2fde38b146105e9576101aa565b8063c36f3874146104e9578063cac8f29214610500578063cbc03b4714610541576101aa565b806396d8b04a116100c657806396d8b04a146104715780639ed189271461048d578063bdfd987714610497578063c10f2700146104c0576101aa565b8063720c7cbb146103de5780637f9e18081461041b5780638da5cb5b14610446576101aa565b80633f2aecea1161015957806364b4f7511161013357806364b4f7511461034a57806367561d93146103755780636e861c0e1461039e578063715018a6146103c7576101aa565b80633f2aecea146102cb5780635c975abb146102f45780635f1cc0e61461031f576101aa565b806305b64e98146101af5780630b3a60a9146101ec57806320c5375e14610217578063308f12861461025b578063339d2590146102985780633522638b146102a2576101aa565b366101aa57600080fd5b600080fd5b3480156101bb57600080fd5b506101d660048036038101906101d191906130bd565b610612565b6040516101e39190613103565b60405180910390f35b3480156101f857600080fd5b5061020161065b565b60405161020e9190613103565b60405180910390f35b34801561022357600080fd5b5061023e60048036038101906102399190613154565b610667565b604051610252989796959493929190613257565b60405180910390f35b34801561026757600080fd5b50610282600480360381019061027d91906130bd565b610881565b60405161028f9190613103565b60405180910390f35b6102a06108cd565b005b3480156102ae57600080fd5b506102c960048036038101906102c49190613316565b610a81565b005b3480156102d757600080fd5b506102f260048036038101906102ed919061336f565b610af5565b005b34801561030057600080fd5b50610309610cfd565b60405161031691906133af565b60405180910390f35b34801561032b57600080fd5b50610334610d13565b6040516103419190613475565b60405180910390f35b34801561035657600080fd5b5061035f610e53565b60405161036c9190613103565b60405180910390f35b34801561038157600080fd5b5061039c600480360381019061039791906130bd565b610e5f565b005b3480156103aa57600080fd5b506103c560048036038101906103c091906130bd565b610ee6565b005b3480156103d357600080fd5b506103dc610f6b565b005b3480156103ea57600080fd5b50610405600480360381019061040091906130bd565b610f7f565b60405161041291906134ce565b60405180910390f35b34801561042757600080fd5b5061043061109d565b60405161043d9190613103565b60405180910390f35b34801561045257600080fd5b5061045b6110a7565b60405161046891906134e9565b60405180910390f35b61048b60048036038101906104869190613154565b6110d0565b005b61049561128c565b005b3480156104a357600080fd5b506104be60048036038101906104b991906130bd565b6114a2565b005b3480156104cc57600080fd5b506104e760048036038101906104e29190613665565b611aa1565b005b3480156104f557600080fd5b506104fe611e30565b005b34801561050c57600080fd5b5061052760048036038101906105229190613154565b611f7f565b6040516105389594939291906136fc565b60405180910390f35b34801561054d57600080fd5b5061056860048036038101906105639190613756565b61222f565b005b34801561057657600080fd5b50610591600480360381019061058c9190613154565b612479565b005b34801561059f57600080fd5b506105a8612796565b6040516105b59190613103565b60405180910390f35b3480156105ca57600080fd5b506105d36127a6565b6040516105e09190613103565b60405180910390f35b3480156105f557600080fd5b50610610600480360381019061060b91906130bd565b612884565b005b6000600660008373ffffffffffffffffffffffffffffffffffffffff1673ffffffffffffffffffffffffffffffffffffffff168152602001908152602001600020549050919050565b6000609660ff16905090565b600860205280600052604060002060009150905080600001805461068a90613840565b80601f01602080910402602001604051908101604052809291908181526020018280546106b690613840565b80156107035780601f106106d857610100808354040283529160200191610703565b820191906000526020600020905b8154815290600101906020018083116106e657829003601f168201915b50505050509080600101549080600201549080600301805461072490613840565b80601f016020809104026020016040519081016040528092919081815260200182805461075090613840565b801561079d5780601f106107725761010080835404028352916020019161079d565b820191906000526020600020905b81548152906001019060200180831161078057829003601f168201915b5050505050908060040180546107b290613840565b80601f01602080910402602001604051908101604052809291908181526020018280546107de90613840565b801561082b5780601f106108005761010080835404028352916020019161082b565b820191906000526020600020905b81548152906001019060200180831161080e57829003601f168201915b5050505050908060050160009054906101000a900460ff16908060050160019054906101000a900460ff16908060050160029054906101000a900473ffffffffffffffffffffffffffffffffffffffff16905088565b6000600760008373ffffffffffffffffffffffffffffffffffffffff1673ffffffffffffffffffffffffffffffffffffffff168152602001908152602001600020805490509050919050565b670de0b6b3a7640000341015610918576040517f08c379a000000000000000000000000000000000000000000000000000000000815260040161090f906138bd565b60405180910390fd5b600a60003373ffffffffffffffffffffffffffffffffffffffff1673ffffffffffffffffffffffffffffffffffffffff16815260200190815260200160002060000160009054906101000a900460ff16156109a8576040517f08c379a000000000000000000000000000000000000000000000000000000000815260040161099f90613929565b60405180910390fd5b60006109b33361290a565b9050604051806040016040528060011515815260200182815250600a60003373ffffffffffffffffffffffffffffffffffffffff1673ffffffffffffffffffffffffffffffffffffffff16815260200190815260200160002060008201518160000160006101000a81548160ff021916908315150217905550602082015181600101906003610a43929190612f33565b509050507fd9d9fdcc9f936c76b5aafe54fc3db5dcec0c6583c9ccc4abe91d17575c5145a533604051610a7691906134e9565b60405180910390a150565b610a89612af0565b801515610a94610cfd565b151503610ad6576040517f08c379a0000000000000000000000000000000000000000000000000000000008152600401610acd906139bb565b60405180910390fd5b8015610ae957610ae4612b77565b610af2565b610af1612bda565b5b50565b600460003373ffffffffffffffffffffffffffffffffffffffff1673ffffffffffffffffffffffffffffffffffffffff16815260200190815260200160002060000160009054906101000a900460ff16610b84576040517f08c379a0000000000000000000000000000000000000000000000000000000008152600401610b7b90613a27565b60405180910390fd5b600460003373ffffffffffffffffffffffffffffffffffffffff1673ffffffffffffffffffffffffffffffffffffffff16815260200190815260200160002060000160019054906101000a900460ff16610c13576040517f08c379a0000000000000000000000000000000000000000000000000000000008152600401610c0a90613a93565b60405180910390fd5b6008600083815260200190815260200160002060050160009054906101000a900460ff16610c76576040517f08c379a0000000000000000000000000000000000000000000000000000000008152600401610c6d90613aff565b60405180910390fd5b806008600084815260200190815260200160002060050160016101000a81548160ff021916908360ff1602179055504260086000848152602001908152602001600020600101819055507f6b7efd1d185714db0de1fb8acf2c5fba53efbdf80a89fe0385d209e3503adfc58282604051610cf1929190613b2e565b60405180910390a15050565b60008060149054906101000a900460ff16905090565b610d1b612fcd565b600a60003373ffffffffffffffffffffffffffffffffffffffff1673ffffffffffffffffffffffffffffffffffffffff16815260200190815260200160002060000160009054906101000a900460ff16610daa576040517f08c379a0000000000000000000000000000000000000000000000000000000008152600401610da190613ba3565b60405180910390fd5b600a60003373ffffffffffffffffffffffffffffffffffffffff1673ffffffffffffffffffffffffffffffffffffffff168152602001908152602001600020600101600380602002604051908101604052809291908260038015610e49576020028201916000905b82829054906101000a900460ff1660ff1681526020019060010190602082600001049283019260010382029150808411610e125790505b5050505050905090565b670de0b6b3a764000081565b610e67612af0565b6001600360008373ffffffffffffffffffffffffffffffffffffffff1673ffffffffffffffffffffffffffffffffffffffff168152602001908152602001600020819055507f2c74592fddad593c2c4403101ce9b30930711ab87571268ddd1e1989ee1d791781604051610edb91906134e9565b60405180910390a150565b610eee612af0565b600360008273ffffffffffffffffffffffffffffffffffffffff1673ffffffffffffffffffffffffffffffffffffffff168152602001908152602001600020600090557fdce35c6ead5e97f9a12a9dfe363465b6f62c5fab770d14f46f89c82c58819cc681604051610f6091906134e9565b60405180910390a150565b610f73612af0565b610f7d6000612c3c565b565b610f87612fef565b600460008373ffffffffffffffffffffffffffffffffffffffff1673ffffffffffffffffffffffffffffffffffffffff16815260200190815260200160002060000160009054906101000a900460ff16611016576040517f08c379a000000000000000000000000000000000000000000000000000000000815260040161100d90613a27565b60405180910390fd5b600460008373ffffffffffffffffffffffffffffffffffffffff1673ffffffffffffffffffffffffffffffffffffffff1681526020019081526020016000206040518060400160405290816000820160009054906101000a900460ff161515151581526020016000820160019054906101000a900460ff1615151515815250509050919050565b6000600254905090565b60008060009054906101000a900473ffffffffffffffffffffffffffffffffffffffff16905090565b6110d8612d00565b6110e0612d46565b6008600082815260200190815260200160002060050160009054906101000a900460ff16611143576040517f08c379a000000000000000000000000000000000000000000000000000000000815260040161113a90613aff565b60405180910390fd5b670de0b6b3a764000034111561118e576040517f08c379a000000000000000000000000000000000000000000000000000000000815260040161118590613c35565b60405180910390fd5b6005600082815260200190815260200160002060405180604001604052803373ffffffffffffffffffffffffffffffffffffffff16815260200134815250908060018154018082558091505060019003906000526020600020906002020160009091909190915060008201518160000160006101000a81548173ffffffffffffffffffffffffffffffffffffffff021916908373ffffffffffffffffffffffffffffffffffffffff1602179055506020820151816001015550507f560e0ec59b8302a4db7417f20b3b117c19e01defaec71a75c29bddbcbe503e223382604051611279929190613c55565b60405180910390a1611289612d87565b50565b611294612d00565b61129c612d46565b600460003373ffffffffffffffffffffffffffffffffffffffff1673ffffffffffffffffffffffffffffffffffffffff16815260200190815260200160002060000160009054906101000a900460ff1661132b576040517f08c379a000000000000000000000000000000000000000000000000000000000815260040161132290613a27565b60405180910390fd5b600460003373ffffffffffffffffffffffffffffffffffffffff1673ffffffffffffffffffffffffffffffffffffffff16815260200190815260200160002060000160019054906101000a900460ff16156113bb576040517f08c379a00000000000000000000000000000000000000000000000000000000081526004016113b290613cca565b60405180910390fd5b678ac7230489e80000341015611406576040517f08c379a00000000000000000000000000000000000000000000000000000000081526004016113fd90613d36565b60405180910390fd5b6001600460003373ffffffffffffffffffffffffffffffffffffffff1673ffffffffffffffffffffffffffffffffffffffff16815260200190815260200160002060000160016101000a81548160ff0219169083151502179055507f3c348ba34685212d5d04f432a9e569b642b180df0227a6b0c899050c4acb7af83360405161149091906134e9565b60405180910390a16114a0612d87565b565b600460003373ffffffffffffffffffffffffffffffffffffffff1673ffffffffffffffffffffffffffffffffffffffff16815260200190815260200160002060000160009054906101000a900460ff16611531576040517f08c379a000000000000000000000000000000000000000000000000000000000815260040161152890613dc8565b60405180910390fd5b600460008273ffffffffffffffffffffffffffffffffffffffff1673ffffffffffffffffffffffffffffffffffffffff16815260200190815260200160002060000160009054906101000a900460ff16156115c1576040517f08c379a00000000000000000000000000000000000000000000000000000000081526004016115b890613e34565b60405180910390fd5b600460ff166002541161167d576001600460008373ffffffffffffffffffffffffffffffffffffffff1673ffffffffffffffffffffffffffffffffffffffff16815260200190815260200160002060000160006101000a81548160ff0219169083151502179055506002600081548092919061163c90613e83565b91905055507f89a6354fb229eda6cbc28306798727b4d524818d2c375220bc3f360f24cffaca8160405161167091906134e9565b60405180910390a1611a9e565b6000600760008373ffffffffffffffffffffffffffffffffffffffff1673ffffffffffffffffffffffffffffffffffffffff168152602001908152602001600020805490500361176c57600760008273ffffffffffffffffffffffffffffffffffffffff1673ffffffffffffffffffffffffffffffffffffffff168152602001908152602001600020339080600181540180825580915050600190039060005260206000200160009091909190916101000a81548173ffffffffffffffffffffffffffffffffffffffff021916908373ffffffffffffffffffffffffffffffffffffffff160217905550611951565b60005b600760008373ffffffffffffffffffffffffffffffffffffffff1673ffffffffffffffffffffffffffffffffffffffff168152602001908152602001600020805490508110156118af573373ffffffffffffffffffffffffffffffffffffffff16600760008473ffffffffffffffffffffffffffffffffffffffff1673ffffffffffffffffffffffffffffffffffffffff168152602001908152602001600020828154811061182157611820613ecb565b5b9060005260206000200160009054906101000a900473ffffffffffffffffffffffffffffffffffffffff1673ffffffffffffffffffffffffffffffffffffffff16036118a2576040517f08c379a000000000000000000000000000000000000000000000000000000000815260040161189990613f6c565b60405180910390fd5b808060010191505061176f565b50600760008273ffffffffffffffffffffffffffffffffffffffff1673ffffffffffffffffffffffffffffffffffffffff168152602001908152602001600020339080600181540180825580915050600190039060005260206000200160009091909190916101000a81548173ffffffffffffffffffffffffffffffffffffffff021916908373ffffffffffffffffffffffffffffffffffffffff1602179055505b600061195b6127a6565b905080600760008473ffffffffffffffffffffffffffffffffffffffff1673ffffffffffffffffffffffffffffffffffffffff1681526020019081526020016000208054905010611a9c576001600460008473ffffffffffffffffffffffffffffffffffffffff1673ffffffffffffffffffffffffffffffffffffffff16815260200190815260200160002060000160006101000a81548160ff021916908315150217905550600760008373ffffffffffffffffffffffffffffffffffffffff1673ffffffffffffffffffffffffffffffffffffffff1681526020019081526020016000206000611a4c919061300d565b60026000815480929190611a5f90613e83565b91905055507f89a6354fb229eda6cbc28306798727b4d524818d2c375220bc3f360f24cffaca82604051611a9391906134e9565b60405180910390a15b505b50565b8460ff16600a60003373ffffffffffffffffffffffffffffffffffffffff1673ffffffffffffffffffffffffffffffffffffffff168152602001908152602001600020600101600060038110611afa57611af9613ecb565b5b602091828204019190069054906101000a900460ff1660ff161480611b8e57508460ff16600a60003373ffffffffffffffffffffffffffffffffffffffff1673ffffffffffffffffffffffffffffffffffffffff168152602001908152602001600020600101600160038110611b7357611b72613ecb565b5b602091828204019190069054906101000a900460ff1660ff16145b80611c0857508460ff16600a60003373ffffffffffffffffffffffffffffffffffffffff1673ffffffffffffffffffffffffffffffffffffffff168152602001908152602001600020600101600260038110611bed57611bec613ecb565b5b602091828204019190069054906101000a900460ff1660ff16145b611c47576040517f08c379a0000000000000000000000000000000000000000000000000000000008152600401611c3e90613ffe565b60405180910390fd5b600085858585604051602001611c6094939291906140f9565b604051602081830303815290604052805190602001209050600b600082815260200190815260200160002060000160149054906101000a900460ff16611cdb576040517f08c379a0000000000000000000000000000000000000000000000000000000008152600401611cd2906141b5565b60405180910390fd5b600b600082815260200190815260200160002060010160008360ff1660ff168152602001908152602001600020339080600181540180825580915050600190039060005260206000200160009091909190916101000a81548173ffffffffffffffffffffffffffffffffffffffff021916908373ffffffffffffffffffffffffffffffffffffffff1602179055507f43c853095c2752648493c88b4baac4d580d2594ffb00c6f1d4242d844514f78385858585604051611d9e94939291906141d5565b60405180910390a16003600b600083815260200190815260200160002060010160008460ff1660ff1681526020019081526020016000208054905010611e28577fe23f5229de535c091e3b7bec2665f5d698192d3b31393066e8987b7a05076b6c85858585604051611e1394939291906141d5565b60405180910390a1611e2785858585612d90565b5b505050505050565b6000600660003373ffffffffffffffffffffffffffffffffffffffff1673ffffffffffffffffffffffffffffffffffffffff16815260200190815260200160002054905060008111611eb7576040517f08c379a0000000000000000000000000000000000000000000000000000000008152600401611eae9061426d565b60405180910390fd5b6000600660003373ffffffffffffffffffffffffffffffffffffffff1673ffffffffffffffffffffffffffffffffffffffff168152602001908152602001600020819055503373ffffffffffffffffffffffffffffffffffffffff166108fc829081150290604051600060405180830381858888f19350505050158015611f42573d6000803e3d6000fd5b507f030a01aa653934ffdaf64d8bd90e1bae0c5dc0f14137194d7148d427431c33283382604051611f7492919061428d565b60405180910390a150565b606060008060008060006008600088815260200190815260200160002060405180610100016040529081600082018054611fb890613840565b80601f0160208091040260200160405190810160405280929190818152602001828054611fe490613840565b80156120315780601f1061200657610100808354040283529160200191612031565b820191906000526020600020905b81548152906001019060200180831161201457829003601f168201915b50505050508152602001600182015481526020016002820154815260200160038201805461205e90613840565b80601f016020809104026020016040519081016040528092919081815260200182805461208a90613840565b80156120d75780601f106120ac576101008083540402835291602001916120d7565b820191906000526020600020905b8154815290600101906020018083116120ba57829003601f168201915b505050505081526020016004820180546120f090613840565b80601f016020809104026020016040519081016040528092919081815260200182805461211c90613840565b80156121695780601f1061213e57610100808354040283529160200191612169565b820191906000526020600020905b81548152906001019060200180831161214c57829003601f168201915b505050505081526020016005820160009054906101000a900460ff161515151581526020016005820160019054906101000a900460ff1660ff1660ff1681526020016005820160029054906101000a900473ffffffffffffffffffffffffffffffffffffffff1673ffffffffffffffffffffffffffffffffffffffff1673ffffffffffffffffffffffffffffffffffffffff1681525050905080600001518160a001518260c0015183602001518460e00151955095509550955095505091939590929450565b600460003373ffffffffffffffffffffffffffffffffffffffff1673ffffffffffffffffffffffffffffffffffffffff16815260200190815260200160002060000160019054906101000a900460ff166122be576040517f08c379a00000000000000000000000000000000000000000000000000000000081526004016122b590614302565b60405180910390fd5b60003385856040516020016122d593929190614322565b604051602081830303815290604052805190602001209050604051806101000160405280868152602001858152602001858152602001848152602001838152602001600115158152602001600060ff1681526020013373ffffffffffffffffffffffffffffffffffffffff1681525060086000838152602001908152602001600020600082015181600001908161236c9190614507565b50602082015181600101556040820151816002015560608201518160030190816123969190614507565b5060808201518160040190816123ac9190614507565b5060a08201518160050160006101000a81548160ff02191690831515021790555060c08201518160050160016101000a81548160ff021916908360ff16021790555060e08201518160050160026101000a81548173ffffffffffffffffffffffffffffffffffffffff021916908373ffffffffffffffffffffffffffffffffffffffff1602179055509050507f8e0f88a4762f63c2865ecc405499bd574dae2494d654c4be45fb8286517611b681600060405161246a929190613b2e565b60405180910390a15050505050565b6008600082815260200190815260200160002060050160009054906101000a900460ff166124dc576040517f08c379a00000000000000000000000000000000000000000000000000000000081526004016124d390613aff565b60405180910390fd5b601460ff166008600083815260200190815260200160002060050160019054906101000a900460ff1660ff1614612548576040517f08c379a000000000000000000000000000000000000000000000000000000000815260040161253f9061464b565b60405180910390fd5b60005b6005600083815260200190815260200160002080549050811015612792576000806125b9609660ff1660056000878152602001908152602001600020858154811061259957612598613ecb565b5b906000526020600020906002020160010154612d9690919063ffffffff16565b91509150816125fd576040517f08c379a00000000000000000000000000000000000000000000000000000000081526004016125f4906146b7565b60405180910390fd5b600080612614606484612de990919063ffffffff16565b9150915081612658576040517f08c379a000000000000000000000000000000000000000000000000000000000815260040161264f90614723565b60405180910390fd5b8060066000600560008a8152602001908152602001600020888154811061268257612681613ecb565b5b906000526020600020906002020160000160009054906101000a900473ffffffffffffffffffffffffffffffffffffffff1673ffffffffffffffffffffffffffffffffffffffff1673ffffffffffffffffffffffffffffffffffffffff168152602001908152602001600020819055507f387e531539117ffbbc64346498e91d0916d1cf52ac62a797e1102d5a400cb63260056000888152602001908152602001600020868154811061273857612737613ecb565b5b906000526020600020906002020160000160009054906101000a900473ffffffffffffffffffffffffffffffffffffffff168260405161277992919061428d565b60405180910390a150505050808060010191505061254b565b5050565b6000670de0b6b3a7640000905090565b6000600460ff16600254116127be5760019050612881565b6000806127da603260ff16600254612d9690919063ffffffff16565b915091508161281e576040517f08c379a0000000000000000000000000000000000000000000000000000000008152600401612815906146b7565b60405180910390fd5b600080612835606484612de990919063ffffffff16565b9150915081612879576040517f08c379a000000000000000000000000000000000000000000000000000000000815260040161287090614723565b60405180910390fd5b809450505050505b90565b61288c612af0565b600073ffffffffffffffffffffffffffffffffffffffff168173ffffffffffffffffffffffffffffffffffffffff16036128fe5760006040517f1e4fbdf70000000000000000000000000000000000000000000000000000000081526004016128f591906134e9565b60405180910390fd5b61290781612c3c565b50565b612912612fcd565b61291a612fcd565b61292383612e1f565b8160006003811061293757612936613ecb565b5b602002019060ff16908160ff16815250508060006003811061295c5761295b613ecb565b5b60200201518160016003811061297557612974613ecb565b5b602002019060ff16908160ff16815250505b8060006003811061299b5761299a613ecb565b5b602002015160ff16816001600381106129b7576129b6613ecb565b5b602002015160ff16036129f7576129cd83612e1f565b816001600381106129e1576129e0613ecb565b5b602002019060ff16908160ff1681525050612987565b80600160038110612a0b57612a0a613ecb565b5b602002015181600260038110612a2457612a23613ecb565b5b602002019060ff16908160ff16815250505b80600060038110612a4a57612a49613ecb565b5b602002015160ff1681600260038110612a6657612a65613ecb565b5b602002015160ff161480612aaf575080600160038110612a8957612a88613ecb565b5b602002015160ff1681600260038110612aa557612aa4613ecb565b5b602002015160ff16145b15612ae757612abd83612e1f565b81600260038110612ad157612ad0613ecb565b5b602002019060ff16908160ff1681525050612a36565b80915050919050565b612af8612eeb565b73ffffffffffffffffffffffffffffffffffffffff16612b166110a7565b73ffffffffffffffffffffffffffffffffffffffff1614612b7557612b39612eeb565b6040517f118cdaa7000000000000000000000000000000000000000000000000000000008152600401612b6c91906134e9565b60405180910390fd5b565b612b7f612d46565b6001600060146101000a81548160ff0219169083151502179055507f62e78cea01bee320cd4e420270b5ea74000d11b0c9f74754ebdbfc544b05a258612bc3612eeb565b604051612bd091906134e9565b60405180910390a1565b612be2612ef3565b60008060146101000a81548160ff0219169083151502179055507f5db9ee0a495bf2e6ff9c91a7834c1ba4fdd244a5e8aa4e537bd38aeae4b073aa612c25612eeb565b604051612c3291906134e9565b60405180910390a1565b60008060009054906101000a900473ffffffffffffffffffffffffffffffffffffffff169050816000806101000a81548173ffffffffffffffffffffffffffffffffffffffff021916908373ffffffffffffffffffffffffffffffffffffffff1602179055508173ffffffffffffffffffffffffffffffffffffffff168173ffffffffffffffffffffffffffffffffffffffff167f8be0079c531659141344cd1fd0a4f28419497f9722a3daafe3b4186f6b6457e060405160405180910390a35050565b600260015403612d3c576040517f3ee5aeb500000000000000000000000000000000000000000000000000000000815260040160405180910390fd5b6002600181905550565b612d4e610cfd565b15612d85576040517fd93c066500000000000000000000000000000000000000000000000000000000815260040160405180910390fd5b565b60018081905550565b50505050565b60008060008403612dae576001600091509150612de2565b6000838502905083858281612dc657612dc5614743565b5b0414612dd9576000809250925050612de2565b60018192509250505b9250929050565b60008060008303612e005760008091509150612e18565b6001838581612e1257612e11614743565b5b04915091505b9250929050565b600080600a905060008160ff166009600081819054906101000a900460ff1680929190612e4b90614772565b91906101000a81548160ff021916908360ff16021790555060ff1643612e71919061479b565b4085604051602001612e849291906147f0565b6040516020818303038152906040528051906020012060001c612ea7919061481c565b905060fa600960009054906101000a900460ff1660ff161115612ee1576000600960006101000a81548160ff021916908360ff1602179055505b8092505050919050565b600033905090565b612efb610cfd565b612f31576040517f8dfc202b00000000000000000000000000000000000000000000000000000000815260040160405180910390fd5b565b826003601f01602090048101928215612fbc5791602002820160005b83821115612f8d57835183826101000a81548160ff021916908360ff1602179055509260200192600101602081600001049283019260010302612f4f565b8015612fba5782816101000a81549060ff0219169055600101602081600001049283019260010302612f8d565b505b509050612fc9919061302e565b5090565b6040518060600160405280600390602082028036833780820191505090505090565b60405180604001604052806000151581526020016000151581525090565b508054600082559060005260206000209081019061302b919061302e565b50565b5b8082111561304757600081600090555060010161302f565b5090565b6000604051905090565b600080fd5b600080fd5b600073ffffffffffffffffffffffffffffffffffffffff82169050919050565b600061308a8261305f565b9050919050565b61309a8161307f565b81146130a557600080fd5b50565b6000813590506130b781613091565b92915050565b6000602082840312156130d3576130d2613055565b5b60006130e1848285016130a8565b91505092915050565b6000819050919050565b6130fd816130ea565b82525050565b600060208201905061311860008301846130f4565b92915050565b6000819050919050565b6131318161311e565b811461313c57600080fd5b50565b60008135905061314e81613128565b92915050565b60006020828403121561316a57613169613055565b5b60006131788482850161313f565b91505092915050565b600081519050919050565b600082825260208201905092915050565b60005b838110156131bb5780820151818401526020810190506131a0565b60008484015250505050565b6000601f19601f8301169050919050565b60006131e382613181565b6131ed818561318c565b93506131fd81856020860161319d565b613206816131c7565b840191505092915050565b60008115159050919050565b61322681613211565b82525050565b600060ff82169050919050565b6132428161322c565b82525050565b6132518161307f565b82525050565b6000610100820190508181036000830152613272818b6131d8565b9050613281602083018a6130f4565b61328e60408301896130f4565b81810360608301526132a081886131d8565b905081810360808301526132b481876131d8565b90506132c360a083018661321d565b6132d060c0830185613239565b6132dd60e0830184613248565b9998505050505050505050565b6132f381613211565b81146132fe57600080fd5b50565b600081359050613310816132ea565b92915050565b60006020828403121561332c5761332b613055565b5b600061333a84828501613301565b91505092915050565b61334c8161322c565b811461335757600080fd5b50565b60008135905061336981613343565b92915050565b6000806040838503121561338657613385613055565b5b60006133948582860161313f565b92505060206133a58582860161335a565b9150509250929050565b60006020820190506133c4600083018461321d565b92915050565b600060039050919050565b600081905092915050565b6000819050919050565b6133f38161322c565b82525050565b600061340583836133ea565b60208301905092915050565b6000602082019050919050565b613427816133ca565b61343181846133d5565b925061343c826133e0565b8060005b8381101561346d57815161345487826133f9565b965061345f83613411565b925050600181019050613440565b505050505050565b600060608201905061348a600083018461341e565b92915050565b61349981613211565b82525050565b6040820160008201516134b56000850182613490565b5060208201516134c86020850182613490565b50505050565b60006040820190506134e3600083018461349f565b92915050565b60006020820190506134fe6000830184613248565b92915050565b600080fd5b600080fd5b7f4e487b7100000000000000000000000000000000000000000000000000000000600052604160045260246000fd5b613546826131c7565b810181811067ffffffffffffffff821117156135655761356461350e565b5b80604052505050565b600061357861304b565b9050613584828261353d565b919050565b600067ffffffffffffffff8211156135a4576135a361350e565b5b6135ad826131c7565b9050602081019050919050565b82818337600083830152505050565b60006135dc6135d784613589565b61356e565b9050828152602081018484840111156135f8576135f7613509565b5b6136038482856135ba565b509392505050565b600082601f8301126136205761361f613504565b5b81356136308482602086016135c9565b91505092915050565b613642816130ea565b811461364d57600080fd5b50565b60008135905061365f81613639565b92915050565b600080600080600060a0868803121561368157613680613055565b5b600061368f8882890161335a565b95505060206136a0888289016130a8565b945050604086013567ffffffffffffffff8111156136c1576136c061305a565b5b6136cd8882890161360b565b93505060606136de88828901613650565b92505060806136ef8882890161335a565b9150509295509295909350565b600060a082019050818103600083015261371681886131d8565b9050613725602083018761321d565b6137326040830186613239565b61373f60608301856130f4565b61374c6080830184613248565b9695505050505050565b600080600080608085870312156137705761376f613055565b5b600085013567ffffffffffffffff81111561378e5761378d61305a565b5b61379a8782880161360b565b94505060206137ab87828801613650565b935050604085013567ffffffffffffffff8111156137cc576137cb61305a565b5b6137d88782880161360b565b925050606085013567ffffffffffffffff8111156137f9576137f861305a565b5b6138058782880161360b565b91505092959194509250565b7f4e487b7100000000000000000000000000000000000000000000000000000000600052602260045260246000fd5b6000600282049050600182168061385857607f821691505b60208210810361386b5761386a613811565b5b50919050565b7f526567697374726174696f6e2066656520697320726571756972656400000000600082015250565b60006138a7601c8361318c565b91506138b282613871565b602082019050919050565b600060208201905081810360008301526138d68161389a565b9050919050565b7f4f7261636c6520697320616c7265616479207265676973746572656400000000600082015250565b6000613913601c8361318c565b915061391e826138dd565b602082019050919050565b6000602082019050818103600083015261394281613906565b9050919050565b7f436f6e747261637420697320616c726561647920696e2074686520737461746560008201527f207265717565737465642e000000000000000000000000000000000000000000602082015250565b60006139a5602b8361318c565b91506139b082613949565b604082019050919050565b600060208201905081810360008301526139d481613998565b9050919050565b7f4169726c696e65206973206e6f7420726567697374657265642e000000000000600082015250565b6000613a11601a8361318c565b9150613a1c826139db565b602082019050919050565b60006020820190508181036000830152613a4081613a04565b9050919050565b7f4169726c696e65206973206e6f742066756e6465642e00000000000000000000600082015250565b6000613a7d60168361318c565b9150613a8882613a47565b602082019050919050565b60006020820190508181036000830152613aac81613a70565b9050919050565b7f466c69676874206973206e6f7420726567697374657265642e00000000000000600082015250565b6000613ae960198361318c565b9150613af482613ab3565b602082019050919050565b60006020820190508181036000830152613b1881613adc565b9050919050565b613b288161311e565b82525050565b6000604082019050613b436000830185613b1f565b613b506020830184613239565b9392505050565b7f4e6f74207265676973746572656420617320616e206f7261636c650000000000600082015250565b6000613b8d601b8361318c565b9150613b9882613b57565b602082019050919050565b60006020820190508181036000830152613bbc81613b80565b9050919050565b7f496e737572616e636520616d6f756e74206d757374206265206c65737320746860008201527f616e206f7220657175616c20746f20746865206c696d69742e00000000000000602082015250565b6000613c1f60398361318c565b9150613c2a82613bc3565b604082019050919050565b60006020820190508181036000830152613c4e81613c12565b9050919050565b6000604082019050613c6a6000830185613248565b613c776020830184613b1f565b9392505050565b7f4169726c696e6520697320616c72656164792066756e6465642e000000000000600082015250565b6000613cb4601a8361318c565b9150613cbf82613c7e565b602082019050919050565b60006020820190508181036000830152613ce381613ca7565b9050919050565b7f496e73756666696369656e742066756e64696e6720616d6f756e742e00000000600082015250565b6000613d20601c8361318c565b9150613d2b82613cea565b602082019050919050565b60006020820190508181036000830152613d4f81613d13565b9050919050565b7f43616c6c6572206973206e6f7420612072656769737465726564206169726c6960008201527f6e652e0000000000000000000000000000000000000000000000000000000000602082015250565b6000613db260238361318c565b9150613dbd82613d56565b604082019050919050565b60006020820190508181036000830152613de181613da5565b9050919050565b7f4169726c696e6520697320616c726561647920726567697374657265642e0000600082015250565b6000613e1e601e8361318c565b9150613e2982613de8565b602082019050919050565b60006020820190508181036000830152613e4d81613e11565b9050919050565b7f4e487b7100000000000000000000000000000000000000000000000000000000600052601160045260246000fd5b6000613e8e826130ea565b91507fffffffffffffffffffffffffffffffffffffffffffffffffffffffffffffffff8203613ec057613ebf613e54565b5b600182019050919050565b7f4e487b7100000000000000000000000000000000000000000000000000000000600052603260045260246000fd5b7f596f7527766520616c726561647920766f74656420666f72207468697320616960008201527f726c696e652e0000000000000000000000000000000000000000000000000000602082015250565b6000613f5660268361318c565b9150613f6182613efa565b604082019050919050565b60006020820190508181036000830152613f8581613f49565b9050919050565b7f496e64657820646f6573206e6f74206d61746368206f7261636c65207265717560008201527f6573740000000000000000000000000000000000000000000000000000000000602082015250565b6000613fe860238361318c565b9150613ff382613f8c565b604082019050919050565b6000602082019050818103600083015261401781613fdb565b9050919050565b60008160f81b9050919050565b60006140368261401e565b9050919050565b61404e6140498261322c565b61402b565b82525050565b60008160601b9050919050565b600061406c82614054565b9050919050565b600061407e82614061565b9050919050565b6140966140918261307f565b614073565b82525050565b600081905092915050565b60006140b282613181565b6140bc818561409c565b93506140cc81856020860161319d565b80840191505092915050565b6000819050919050565b6140f36140ee826130ea565b6140d8565b82525050565b6000614105828761403d565b6001820191506141158286614085565b60148201915061412582856140a7565b915061413182846140e2565b60208201915081905095945050505050565b7f466c69676874206f722074696d657374616d7020646f206e6f74206d6174636860008201527f206f7261636c6520726571756573740000000000000000000000000000000000602082015250565b600061419f602f8361318c565b91506141aa82614143565b604082019050919050565b600060208201905081810360008301526141ce81614192565b9050919050565b60006080820190506141ea6000830187613248565b81810360208301526141fc81866131d8565b905061420b60408301856130f4565b6142186060830184613239565b95945050505050565b7f4e6f2063726564697420746f2077697468647261772e00000000000000000000600082015250565b600061425760168361318c565b915061426282614221565b602082019050919050565b600060208201905081810360008301526142868161424a565b9050919050565b60006040820190506142a26000830185613248565b6142af60208301846130f4565b9392505050565b7f43616c6c6572206973206e6f7420612066756e646564206169726c696e652e00600082015250565b60006142ec601f8361318c565b91506142f7826142b6565b602082019050919050565b6000602082019050818103600083015261431b816142df565b9050919050565b600061432e8286614085565b60148201915061433e82856140a7565b915061434a82846140e2565b602082019150819050949350505050565b60008190508160005260206000209050919050565b60006020601f8301049050919050565b600082821b905092915050565b6000600883026143bd7fffffffffffffffffffffffffffffffffffffffffffffffffffffffffffffffff82614380565b6143c78683614380565b95508019841693508086168417925050509392505050565b6000819050919050565b60006144046143ff6143fa846130ea565b6143df565b6130ea565b9050919050565b6000819050919050565b61441e836143e9565b61443261442a8261440b565b84845461438d565b825550505050565b600090565b61444761443a565b614452818484614415565b505050565b5b818110156144765761446b60008261443f565b600181019050614458565b5050565b601f8211156144bb5761448c8161435b565b61449584614370565b810160208510156144a4578190505b6144b86144b085614370565b830182614457565b50505b505050565b600082821c905092915050565b60006144de600019846008026144c0565b1980831691505092915050565b60006144f783836144cd565b9150826002028217905092915050565b61451082613181565b67ffffffffffffffff8111156145295761452861350e565b5b6145338254613840565b61453e82828561447a565b600060209050601f831160018114614571576000841561455f578287015190505b61456985826144eb565b8655506145d1565b601f19841661457f8661435b565b60005b828110156145a757848901518255600182019150602085019450602081019050614582565b868310156145c457848901516145c0601f8916826144cd565b8355505b6001600288020188555050505b505050505050565b7f466c69676874206973206e6f742064656c617965642064756520746f2074686560008201527f206169726c696e652e0000000000000000000000000000000000000000000000602082015250565b600061463560298361318c565b9150614640826145d9565b604082019050919050565b6000602082019050818103600083015261466481614628565b9050919050565b7f4d756c7469706c69636174696f6e206f766572666c6f772e0000000000000000600082015250565b60006146a160188361318c565b91506146ac8261466b565b602082019050919050565b600060208201905081810360008301526146d081614694565b9050919050565b7f4469766973696f6e206f766572666c6f772e0000000000000000000000000000600082015250565b600061470d60128361318c565b9150614718826146d7565b602082019050919050565b6000602082019050818103600083015261473c81614700565b9050919050565b7f4e487b7100000000000000000000000000000000000000000000000000000000600052601260045260246000fd5b600061477d8261322c565b915060ff82036147905761478f613e54565b5b600182019050919050565b60006147a6826130ea565b91506147b1836130ea565b92508282039050818111156147c9576147c8613e54565b5b92915050565b6000819050919050565b6147ea6147e58261311e565b6147cf565b82525050565b60006147fc82856147d9565b60208201915061480c8284614085565b6014820191508190509392505050565b6000614827826130ea565b9150614832836130ea565b92508261484257614841614743565b5b82820690509291505056fea26469706673582212206372c4906a18c9ce0c7d2edeeb6bd1518c5e50d30d73a89bce8219a14a298e0564736f6c63430008180033",
  "linkReferences": {},
  "deployedLinkReferences": {}
}