{
  "_format": "hh-sol-artifact-1",
  "contractName": "FlightSuretyData",
  "sourceName": "contracts/FlightSuretyData.sol",
  "abi": [
    {
      "inputs": [
        {
          "internalType": "address",
          "name": "initialOwner",
          "type": "address"
        },
        {
          "internalType": "address",
          "name": "firstAirline",
          "type": "address"
        }
      ],
      "stateMutability": "nonpayable",
      "type": "constructor"
    },
    {
      "inputs": [],
      "name": "EnforcedPause",
      "type": "error"
    },
    {
      "inputs": [],
      "name": "ExpectedPause",
      "type": "error"
    },
    {
      "inputs": [
        {
          "internalType": "address",
          "name": "owner",
          "type": "address"
        }
      ],
      "name": "OwnableInvalidOwner",
      "type": "error"
    },
    {
      "inputs": [
        {
          "internalType": "address",
          "name": "account",
          "type": "address"
        }
      ],
      "name": "OwnableUnauthorizedAccount",
      "type": "error"
    },
    {
      "inputs": [],
      "name": "ReentrancyGuardReentrantCall",
      "type": "error"
    },
    {
      "anonymous": false,
      "inputs": [
        {
          "indexed": false,
          "internalType": "address",
          "name": "airline",
          "type": "address"
        }
      ],
      "name": "AirlineFunded",
      "type": "event"
    },
    {
      "anonymous": false,
      "inputs": [
        {
          "indexed": false,
          "internalType": "address",
          "name": "airline",
          "type": "address"
        }
      ],
      "name": "AirlineRegistered",
      "type": "event"
    },
    {
      "anonymous": false,
      "inputs": [
        {
          "indexed": false,
          "internalType": "address",
          "name": "contractAddress",
          "type": "address"
        }
      ],
      "name": "AuthorizedContract",
      "type": "event"
    },
    {
      "anonymous": false,
      "inputs": [
        {
          "indexed": false,
          "internalType": "address",
          "name": "contractAddress",
          "type": "address"
        }
      ],
      "name": "DeauthorizedContract",
      "type": "event"
    },
    {
      "anonymous": false,
      "inputs": [
        {
          "indexed": false,
          "internalType": "bytes32",
          "name": "flightKey",
          "type": "bytes32"
        },
        {
          "indexed": false,
          "internalType": "uint8",
          "name": "statusCode",
          "type": "uint8"
        }
      ],
      "name": "FlightRegistered",
      "type": "event"
    },
    {
      "anonymous": false,
      "inputs": [
        {
          "indexed": false,
          "internalType": "address",
          "name": "airline",
          "type": "address"
        },
        {
          "indexed": false,
          "internalType": "string",
          "name": "flight",
          "type": "string"
        },
        {
          "indexed": false,
          "internalType": "uint256",
          "name": "timestamp",
          "type": "uint256"
        },
        {
          "indexed": false,
          "internalType": "uint8",
          "name": "status",
          "type": "uint8"
        }
      ],
      "name": "FlightStatusInfo",
      "type": "event"
    },
    {
      "anonymous": false,
      "inputs": [
        {
          "indexed": false,
          "internalType": "bytes32",
          "name": "flightKey",
          "type": "bytes32"
        },
        {
          "indexed": false,
          "internalType": "uint8",
          "name": "statusCode",
          "type": "uint8"
        }
      ],
      "name": "FlightStatusUpdated",
      "type": "event"
    },
    {
      "anonymous": false,
      "inputs": [
        {
          "indexed": false,
          "internalType": "address",
          "name": "passenger",
          "type": "address"
        },
        {
          "indexed": false,
          "internalType": "uint256",
          "name": "amount",
          "type": "uint256"
        }
      ],
      "name": "InsuranceCredited",
      "type": "event"
    },
    {
      "anonymous": false,
      "inputs": [
        {
          "indexed": false,
          "internalType": "address",
          "name": "passenger",
          "type": "address"
        },
        {
          "indexed": false,
          "internalType": "bytes32",
          "name": "flightKey",
          "type": "bytes32"
        }
      ],
      "name": "InsurancePurchased",
      "type": "event"
    },
    {
      "anonymous": false,
      "inputs": [
        {
          "indexed": false,
          "internalType": "address",
          "name": "passenger",
          "type": "address"
        },
        {
          "indexed": false,
          "internalType": "uint256",
          "name": "amount",
          "type": "uint256"
        }
      ],
      "name": "InsuranceWithdrawn",
      "type": "event"
    },
    {
      "anonymous": false,
      "inputs": [
        {
          "indexed": false,
          "internalType": "address",
          "name": "oracle",
          "type": "address"
        }
      ],
      "name": "OracleRegistered",
      "type": "event"
    },
    {
      "anonymous": false,
      "inputs": [
        {
          "indexed": false,
          "internalType": "address",
          "name": "airline",
          "type": "address"
        },
        {
          "indexed": false,
          "internalType": "string",
          "name": "flight",
          "type": "string"
        },
        {
          "indexed": false,
          "internalType": "uint256",
          "name": "timestamp",
          "type": "uint256"
        },
        {
          "indexed": false,
          "internalType": "uint8",
          "name": "status",
          "type": "uint8"
        }
      ],
      "name": "OracleReport",
      "type": "event"
    },
    {
      "anonymous": false,
      "inputs": [
        {
          "indexed": false,
          "internalType": "uint8",
          "name": "index",
          "type": "uint8"
        },
        {
          "indexed": false,
          "internalType": "address",
          "name": "airline",
          "type": "address"
        },
        {
          "indexed": false,
          "internalType": "string",
          "name": "flight",
          "type": "string"
        },
        {
          "indexed": false,
          "internalType": "uint256",
          "name": "timestamp",
          "type": "uint256"
        }
      ],
      "name": "OracleRequest",
      "type": "event"
    },
    {
      "anonymous": false,
      "inputs": [
        {
          "indexed": true,
          "internalType": "address",
          "name": "previousOwner",
          "type": "address"
        },
        {
          "indexed": true,
          "internalType": "address",
          "name": "newOwner",
          "type": "address"
        }
      ],
      "name": "OwnershipTransferred",
      "type": "event"
    },
    {
      "anonymous": false,
      "inputs": [
        {
          "indexed": false,
          "internalType": "address",
          "name": "account",
          "type": "address"
        }
      ],
      "name": "Paused",
      "type": "event"
    },
    {
      "anonymous": false,
      "inputs": [
        {
          "indexed": false,
          "internalType": "address",
          "name": "account",
          "type": "address"
        }
      ],
      "name": "Unpaused",
      "type": "event"
    },
    {
      "stateMutability": "payable",
      "type": "fallback"
    },
    {
      "inputs": [],
      "name": "REGISTRATION_FEE",
      "outputs": [
        {
          "internalType": "uint256",
          "name": "",
          "type": "uint256"
        }
      ],
      "stateMutability": "view",
      "type": "function"
    },
    {
      "inputs": [
        {
          "internalType": "address",
          "name": "contractAddress",
          "type": "address"
        }
      ],
      "name": "authorizeContract",
      "outputs": [],
      "stateMutability": "nonpayable",
      "type": "function"
    },
    {
      "inputs": [
        {
          "internalType": "bytes32",
          "name": "flightKey",
          "type": "bytes32"
        }
      ],
      "name": "creditInsurees",
      "outputs": [],
      "stateMutability": "nonpayable",
      "type": "function"
    },
    {
      "inputs": [
        {
          "internalType": "address",
          "name": "contractAddress",
          "type": "address"
        }
      ],
      "name": "deauthorizeContract",
      "outputs": [],
      "stateMutability": "nonpayable",
      "type": "function"
    },
    {
      "inputs": [],
      "name": "fundAirline",
      "outputs": [],
      "stateMutability": "payable",
      "type": "function"
    },
    {
      "inputs": [],
      "name": "getAirlineCount",
      "outputs": [
        {
          "internalType": "uint256",
          "name": "",
          "type": "uint256"
        }
      ],
      "stateMutability": "view",
      "type": "function"
    },
    {
      "inputs": [
        {
          "internalType": "address",
          "name": "airline",
          "type": "address"
        }
      ],
      "name": "getAirlineInfo",
      "outputs": [
        {
          "components": [
            {
              "internalType": "bool",
              "name": "isRegistered",
              "type": "bool"
            },
            {
              "internalType": "bool",
              "name": "isFunded",
              "type": "bool"
            }
          ],
          "internalType": "struct FlightSuretyData.Airline",
          "name": "",
          "type": "tuple"
        }
      ],
      "stateMutability": "view",
      "type": "function"
    },
    {
      "inputs": [
        {
          "internalType": "bytes32",
          "name": "flightKey",
          "type": "bytes32"
        }
      ],
      "name": "getFlight",
      "outputs": [
        {
          "internalType": "uint256",
          "name": "name",
          "type": "uint256"
        },
        {
          "internalType": "bool",
          "name": "isRegistered",
          "type": "bool"
        },
        {
          "internalType": "uint8",
          "name": "statusCode",
          "type": "uint8"
        },
        {
          "internalType": "uint256",
          "name": "updatedTimestamp",
          "type": "uint256"
        },
        {
          "internalType": "address",
          "name": "airline",
          "type": "address"
        }
      ],
      "stateMutability": "view",
      "type": "function"
    },
    {
      "inputs": [],
      "name": "getInsuranceLimit",
      "outputs": [
        {
          "internalType": "uint256",
          "name": "",
          "type": "uint256"
        }
      ],
      "stateMutability": "pure",
      "type": "function"
    },
    {
      "inputs": [],
      "name": "getInsuranceRatePercent",
      "outputs": [
        {
          "internalType": "uint256",
          "name": "",
          "type": "uint256"
        }
      ],
      "stateMutability": "pure",
      "type": "function"
    },
    {
      "inputs": [],
      "name": "getMyIndexes",
      "outputs": [
        {
          "internalType": "uint8[3]",
          "name": "",
          "type": "uint8[3]"
        }
      ],
      "stateMutability": "view",
      "type": "function"
    },
    {
      "inputs": [
        {
          "internalType": "address",
          "name": "passenger",
          "type": "address"
        }
      ],
      "name": "getPassengerCredit",
      "outputs": [
        {
          "internalType": "uint256",
          "name": "",
          "type": "uint256"
        }
      ],
      "stateMutability": "view",
      "type": "function"
    },
    {
      "inputs": [
        {
          "internalType": "address",
          "name": "airline",
          "type": "address"
        }
      ],
      "name": "getVotesForAirline",
      "outputs": [
        {
          "internalType": "uint256",
          "name": "",
          "type": "uint256"
        }
      ],
      "stateMutability": "view",
      "type": "function"
    },
    {
      "inputs": [],
      "name": "getVotesThreshold",
      "outputs": [
        {
          "internalType": "uint256",
          "name": "",
          "type": "uint256"
        }
      ],
      "stateMutability": "view",
      "type": "function"
    },
    {
      "inputs": [],
      "name": "owner",
      "outputs": [
        {
          "internalType": "address",
          "name": "",
          "type": "address"
        }
      ],
      "stateMutability": "view",
      "type": "function"
    },
    {
      "inputs": [],
      "name": "paused",
      "outputs": [
        {
          "internalType": "bool",
          "name": "",
          "type": "bool"
        }
      ],
      "stateMutability": "view",
      "type": "function"
    },
    {
      "inputs": [
        {
          "internalType": "bytes32",
          "name": "flightKey",
          "type": "bytes32"
        }
      ],
      "name": "purchaseInsurance",
      "outputs": [],
      "stateMutability": "payable",
      "type": "function"
    },
    {
      "inputs": [
        {
          "internalType": "address",
          "name": "airline",
          "type": "address"
        }
      ],
      "name": "registerAirline",
      "outputs": [],
      "stateMutability": "nonpayable",
      "type": "function"
    },
    {
      "inputs": [
        {
          "internalType": "uint256",
          "name": "name",
          "type": "uint256"
        },
        {
          "internalType": "address",
          "name": "airline",
          "type": "address"
        },
        {
          "internalType": "uint256",
          "name": "timestamp",
          "type": "uint256"
        }
      ],
      "name": "registerFlight",
      "outputs": [],
      "stateMutability": "nonpayable",
      "type": "function"
    },
    {
      "inputs": [],
      "name": "registerOracle",
      "outputs": [],
      "stateMutability": "payable",
      "type": "function"
    },
    {
      "inputs": [],
      "name": "renounceOwnership",
      "outputs": [],
      "stateMutability": "nonpayable",
      "type": "function"
    },
    {
      "inputs": [
        {
          "internalType": "bool",
          "name": "mode",
          "type": "bool"
        }
      ],
      "name": "setPausableStatus",
      "outputs": [],
      "stateMutability": "nonpayable",
      "type": "function"
    },
    {
      "inputs": [
        {
          "internalType": "uint8",
          "name": "index",
          "type": "uint8"
        },
        {
          "internalType": "address",
          "name": "airline",
          "type": "address"
        },
        {
          "internalType": "string",
          "name": "flight",
          "type": "string"
        },
        {
          "internalType": "uint256",
          "name": "timestamp",
          "type": "uint256"
        },
        {
          "internalType": "uint8",
          "name": "statusCode",
          "type": "uint8"
        }
      ],
      "name": "submitOracleResponse",
      "outputs": [],
      "stateMutability": "nonpayable",
      "type": "function"
    },
    {
      "inputs": [
        {
          "internalType": "address",
          "name": "newOwner",
          "type": "address"
        }
      ],
      "name": "transferOwnership",
      "outputs": [],
      "stateMutability": "nonpayable",
      "type": "function"
    },
    {
      "inputs": [
        {
          "internalType": "bytes32",
          "name": "flightKey",
          "type": "bytes32"
        },
        {
          "internalType": "uint8",
          "name": "statusCode",
          "type": "uint8"
        }
      ],
      "name": "updateFlightStatus",
      "outputs": [],
      "stateMutability": "nonpayable",
      "type": "function"
    },
    {
      "inputs": [],
      "name": "withdrawCredit",
      "outputs": [],
      "stateMutability": "nonpayable",
      "type": "function"
    },
    {
      "stateMutability": "payable",
      "type": "receive"
    }
  ],
  "bytecode": "0x608060405260006002556000600960006101000a81548160ff021916908360ff1602179055503480156200003257600080fd5b50604051620043ad380380620043ad8339818101604052810190620000589190620002ee565b81600073ffffffffffffffffffffffffffffffffffffffff168173ffffffffffffffffffffffffffffffffffffffff1603620000ce5760006040517f1e4fbdf7000000000000000000000000000000000000000000000000000000008152600401620000c5919062000346565b60405180910390fd5b620000df81620001c060201b60201c565b5060008060146101000a81548160ff02191690831515021790555060018081905550604051806040016040528060011515815260200160001515815250600460008373ffffffffffffffffffffffffffffffffffffffff1673ffffffffffffffffffffffffffffffffffffffff16815260200190815260200160002060008201518160000160006101000a81548160ff02191690831515021790555060208201518160000160016101000a81548160ff02191690831515021790555090505060026000815480929190620001b3906200039c565b91905055505050620003e9565b60008060009054906101000a900473ffffffffffffffffffffffffffffffffffffffff169050816000806101000a81548173ffffffffffffffffffffffffffffffffffffffff021916908373ffffffffffffffffffffffffffffffffffffffff1602179055508173ffffffffffffffffffffffffffffffffffffffff168173ffffffffffffffffffffffffffffffffffffffff167f8be0079c531659141344cd1fd0a4f28419497f9722a3daafe3b4186f6b6457e060405160405180910390a35050565b600080fd5b600073ffffffffffffffffffffffffffffffffffffffff82169050919050565b6000620002b68262000289565b9050919050565b620002c881620002a9565b8114620002d457600080fd5b50565b600081519050620002e881620002bd565b92915050565b6000806040838503121562000308576200030762000284565b5b60006200031885828601620002d7565b92505060206200032b85828601620002d7565b9150509250929050565b6200034081620002a9565b82525050565b60006020820190506200035d600083018462000335565b92915050565b7f4e487b7100000000000000000000000000000000000000000000000000000000600052601160045260246000fd5b6000819050919050565b6000620003a98262000392565b91507fffffffffffffffffffffffffffffffffffffffffffffffffffffffffffffffff8203620003de57620003dd62000363565b5b600182019050919050565b613fb480620003f96000396000f3fe6080604052600436106101855760003560e01c8063720c7cbb116100d1578063c10f27001161008a578063cc2f6eba11610064578063cc2f6eba1461050b578063d88641e614610534578063da2cad881461055f578063f2fde38b1461058a5761018f565b8063c10f27001461048a578063c36f3874146104b3578063cac8f292146104ca5761018f565b8063720c7cbb146103a85780637f9e1808146103e55780638da5cb5b1461041057806396d8b04a1461043b5780639ed1892714610457578063bdfd9877146104615761018f565b80633f2aecea1161013e57806364b4f7511161011857806364b4f7511461031457806367561d931461033f5780636e861c0e14610368578063715018a6146103915761018f565b80633f2aecea146102955780635c975abb146102be5780635f1cc0e6146102e95761018f565b806305b64e98146101945780630b3a60a9146101d157806329e8e02a146101fc578063308f128614610225578063339d2590146102625780633522638b1461026c5761018f565b3661018f57600080fd5b600080fd5b3480156101a057600080fd5b506101bb60048036038101906101b69190612c36565b6105b3565b6040516101c89190612c7c565b60405180910390f35b3480156101dd57600080fd5b506101e66105fc565b6040516101f39190612c7c565b60405180910390f35b34801561020857600080fd5b50610223600480360381019061021e9190612cc3565b610608565b005b34801561023157600080fd5b5061024c60048036038101906102479190612c36565b6107fc565b6040516102599190612c7c565b60405180910390f35b61026a610848565b005b34801561027857600080fd5b50610293600480360381019061028e9190612d4e565b6109fc565b005b3480156102a157600080fd5b506102bc60048036038101906102b79190612dea565b610a70565b005b3480156102ca57600080fd5b506102d3610c78565b6040516102e09190612e39565b60405180910390f35b3480156102f557600080fd5b506102fe610c8e565b60405161030b9190612eff565b60405180910390f35b34801561032057600080fd5b50610329610dce565b6040516103369190612c7c565b60405180910390f35b34801561034b57600080fd5b5061036660048036038101906103619190612c36565b610dda565b005b34801561037457600080fd5b5061038f600480360381019061038a9190612c36565b610e61565b005b34801561039d57600080fd5b506103a6610ee6565b005b3480156103b457600080fd5b506103cf60048036038101906103ca9190612c36565b610efa565b6040516103dc9190612f58565b60405180910390f35b3480156103f157600080fd5b506103fa611018565b6040516104079190612c7c565b60405180910390f35b34801561041c57600080fd5b50610425611022565b6040516104329190612f82565b60405180910390f35b61045560048036038101906104509190612f9d565b61104b565b005b61045f611207565b005b34801561046d57600080fd5b5061048860048036038101906104839190612c36565b61141d565b005b34801561049657600080fd5b506104b160048036038101906104ac9190613110565b611a1c565b005b3480156104bf57600080fd5b506104c8611dab565b005b3480156104d657600080fd5b506104f160048036038101906104ec9190612f9d565b611efa565b6040516105029594939291906131b6565b60405180910390f35b34801561051757600080fd5b50610532600480360381019061052d9190612f9d565b611ff2565b005b34801561054057600080fd5b5061054961230f565b6040516105569190612c7c565b60405180910390f35b34801561056b57600080fd5b5061057461231f565b6040516105819190612c7c565b60405180910390f35b34801561059657600080fd5b506105b160048036038101906105ac9190612c36565b6123fd565b005b6000600660008373ffffffffffffffffffffffffffffffffffffffff1673ffffffffffffffffffffffffffffffffffffffff168152602001908152602001600020549050919050565b6000609660ff16905090565b600460003373ffffffffffffffffffffffffffffffffffffffff1673ffffffffffffffffffffffffffffffffffffffff16815260200190815260200160002060000160009054906101000a900460ff16610697576040517f08c379a000000000000000000000000000000000000000000000000000000000815260040161068e9061328c565b60405180910390fd5b60008284836040516020016106ae93929190613315565b6040516020818303038152906040528051906020012090506040518060a00160405280858152602001600115158152602001600060ff1681526020018381526020018473ffffffffffffffffffffffffffffffffffffffff16815250600860008381526020019081526020016000206000820151816000015560208201518160010160006101000a81548160ff02191690831515021790555060408201518160010160016101000a81548160ff021916908360ff1602179055506060820151816002015560808201518160030160006101000a81548173ffffffffffffffffffffffffffffffffffffffff021916908373ffffffffffffffffffffffffffffffffffffffff1602179055509050507f8e0f88a4762f63c2865ecc405499bd574dae2494d654c4be45fb8286517611b68160006040516107ee929190613361565b60405180910390a150505050565b6000600760008373ffffffffffffffffffffffffffffffffffffffff1673ffffffffffffffffffffffffffffffffffffffff168152602001908152602001600020805490509050919050565b670de0b6b3a7640000341015610893576040517f08c379a000000000000000000000000000000000000000000000000000000000815260040161088a906133d6565b60405180910390fd5b600a60003373ffffffffffffffffffffffffffffffffffffffff1673ffffffffffffffffffffffffffffffffffffffff16815260200190815260200160002060000160009054906101000a900460ff1615610923576040517f08c379a000000000000000000000000000000000000000000000000000000000815260040161091a90613442565b60405180910390fd5b600061092e33612483565b9050604051806040016040528060011515815260200182815250600a60003373ffffffffffffffffffffffffffffffffffffffff1673ffffffffffffffffffffffffffffffffffffffff16815260200190815260200160002060008201518160000160006101000a81548160ff0219169083151502179055506020820151816001019060036109be929190612aac565b509050507fd9d9fdcc9f936c76b5aafe54fc3db5dcec0c6583c9ccc4abe91d17575c5145a5336040516109f19190612f82565b60405180910390a150565b610a04612669565b801515610a0f610c78565b151503610a51576040517f08c379a0000000000000000000000000000000000000000000000000000000008152600401610a48906134d4565b60405180910390fd5b8015610a6457610a5f6126f0565b610a6d565b610a6c612753565b5b50565b600460003373ffffffffffffffffffffffffffffffffffffffff1673ffffffffffffffffffffffffffffffffffffffff16815260200190815260200160002060000160009054906101000a900460ff16610aff576040517f08c379a0000000000000000000000000000000000000000000000000000000008152600401610af690613540565b60405180910390fd5b600460003373ffffffffffffffffffffffffffffffffffffffff1673ffffffffffffffffffffffffffffffffffffffff16815260200190815260200160002060000160019054906101000a900460ff16610b8e576040517f08c379a0000000000000000000000000000000000000000000000000000000008152600401610b85906135ac565b60405180910390fd5b6008600083815260200190815260200160002060010160009054906101000a900460ff16610bf1576040517f08c379a0000000000000000000000000000000000000000000000000000000008152600401610be890613618565b60405180910390fd5b806008600084815260200190815260200160002060010160016101000a81548160ff021916908360ff1602179055504260086000848152602001908152602001600020600201819055507f6b7efd1d185714db0de1fb8acf2c5fba53efbdf80a89fe0385d209e3503adfc58282604051610c6c929190613361565b60405180910390a15050565b60008060149054906101000a900460ff16905090565b610c96612b46565b600a60003373ffffffffffffffffffffffffffffffffffffffff1673ffffffffffffffffffffffffffffffffffffffff16815260200190815260200160002060000160009054906101000a900460ff16610d25576040517f08c379a0000000000000000000000000000000000000000000000000000000008152600401610d1c90613684565b60405180910390fd5b600a60003373ffffffffffffffffffffffffffffffffffffffff1673ffffffffffffffffffffffffffffffffffffffff168152602001908152602001600020600101600380602002604051908101604052809291908260038015610dc4576020028201916000905b82829054906101000a900460ff1660ff1681526020019060010190602082600001049283019260010382029150808411610d8d5790505b5050505050905090565b670de0b6b3a764000081565b610de2612669565b6001600360008373ffffffffffffffffffffffffffffffffffffffff1673ffffffffffffffffffffffffffffffffffffffff168152602001908152602001600020819055507f2c74592fddad593c2c4403101ce9b30930711ab87571268ddd1e1989ee1d791781604051610e569190612f82565b60405180910390a150565b610e69612669565b600360008273ffffffffffffffffffffffffffffffffffffffff1673ffffffffffffffffffffffffffffffffffffffff168152602001908152602001600020600090557fdce35c6ead5e97f9a12a9dfe363465b6f62c5fab770d14f46f89c82c58819cc681604051610edb9190612f82565b60405180910390a150565b610eee612669565b610ef860006127b5565b565b610f02612b68565b600460008373ffffffffffffffffffffffffffffffffffffffff1673ffffffffffffffffffffffffffffffffffffffff16815260200190815260200160002060000160009054906101000a900460ff16610f91576040517f08c379a0000000000000000000000000000000000000000000000000000000008152600401610f8890613540565b60405180910390fd5b600460008373ffffffffffffffffffffffffffffffffffffffff1673ffffffffffffffffffffffffffffffffffffffff1681526020019081526020016000206040518060400160405290816000820160009054906101000a900460ff161515151581526020016000820160019054906101000a900460ff1615151515815250509050919050565b6000600254905090565b60008060009054906101000a900473ffffffffffffffffffffffffffffffffffffffff16905090565b611053612879565b61105b6128bf565b6008600082815260200190815260200160002060010160009054906101000a900460ff166110be576040517f08c379a00000000000000000000000000000000000000000000000000000000081526004016110b590613618565b60405180910390fd5b670de0b6b3a7640000341115611109576040517f08c379a000000000000000000000000000000000000000000000000000000000815260040161110090613716565b60405180910390fd5b6005600082815260200190815260200160002060405180604001604052803373ffffffffffffffffffffffffffffffffffffffff16815260200134815250908060018154018082558091505060019003906000526020600020906002020160009091909190915060008201518160000160006101000a81548173ffffffffffffffffffffffffffffffffffffffff021916908373ffffffffffffffffffffffffffffffffffffffff1602179055506020820151816001015550507f560e0ec59b8302a4db7417f20b3b117c19e01defaec71a75c29bddbcbe503e2233826040516111f4929190613736565b60405180910390a1611204612900565b50565b61120f612879565b6112176128bf565b600460003373ffffffffffffffffffffffffffffffffffffffff1673ffffffffffffffffffffffffffffffffffffffff16815260200190815260200160002060000160009054906101000a900460ff166112a6576040517f08c379a000000000000000000000000000000000000000000000000000000000815260040161129d90613540565b60405180910390fd5b600460003373ffffffffffffffffffffffffffffffffffffffff1673ffffffffffffffffffffffffffffffffffffffff16815260200190815260200160002060000160019054906101000a900460ff1615611336576040517f08c379a000000000000000000000000000000000000000000000000000000000815260040161132d906137ab565b60405180910390fd5b678ac7230489e80000341015611381576040517f08c379a000000000000000000000000000000000000000000000000000000000815260040161137890613817565b60405180910390fd5b6001600460003373ffffffffffffffffffffffffffffffffffffffff1673ffffffffffffffffffffffffffffffffffffffff16815260200190815260200160002060000160016101000a81548160ff0219169083151502179055507f3c348ba34685212d5d04f432a9e569b642b180df0227a6b0c899050c4acb7af83360405161140b9190612f82565b60405180910390a161141b612900565b565b600460003373ffffffffffffffffffffffffffffffffffffffff1673ffffffffffffffffffffffffffffffffffffffff16815260200190815260200160002060000160009054906101000a900460ff166114ac576040517f08c379a00000000000000000000000000000000000000000000000000000000081526004016114a39061328c565b60405180910390fd5b600460008273ffffffffffffffffffffffffffffffffffffffff1673ffffffffffffffffffffffffffffffffffffffff16815260200190815260200160002060000160009054906101000a900460ff161561153c576040517f08c379a000000000000000000000000000000000000000000000000000000000815260040161153390613883565b60405180910390fd5b600460ff16600254116115f8576001600460008373ffffffffffffffffffffffffffffffffffffffff1673ffffffffffffffffffffffffffffffffffffffff16815260200190815260200160002060000160006101000a81548160ff021916908315150217905550600260008154809291906115b7906138d2565b91905055507f89a6354fb229eda6cbc28306798727b4d524818d2c375220bc3f360f24cffaca816040516115eb9190612f82565b60405180910390a1611a19565b6000600760008373ffffffffffffffffffffffffffffffffffffffff1673ffffffffffffffffffffffffffffffffffffffff16815260200190815260200160002080549050036116e757600760008273ffffffffffffffffffffffffffffffffffffffff1673ffffffffffffffffffffffffffffffffffffffff168152602001908152602001600020339080600181540180825580915050600190039060005260206000200160009091909190916101000a81548173ffffffffffffffffffffffffffffffffffffffff021916908373ffffffffffffffffffffffffffffffffffffffff1602179055506118cc565b60005b600760008373ffffffffffffffffffffffffffffffffffffffff1673ffffffffffffffffffffffffffffffffffffffff1681526020019081526020016000208054905081101561182a573373ffffffffffffffffffffffffffffffffffffffff16600760008473ffffffffffffffffffffffffffffffffffffffff1673ffffffffffffffffffffffffffffffffffffffff168152602001908152602001600020828154811061179c5761179b61391a565b5b9060005260206000200160009054906101000a900473ffffffffffffffffffffffffffffffffffffffff1673ffffffffffffffffffffffffffffffffffffffff160361181d576040517f08c379a0000000000000000000000000000000000000000000000000000000008152600401611814906139bb565b60405180910390fd5b80806001019150506116ea565b50600760008273ffffffffffffffffffffffffffffffffffffffff1673ffffffffffffffffffffffffffffffffffffffff168152602001908152602001600020339080600181540180825580915050600190039060005260206000200160009091909190916101000a81548173ffffffffffffffffffffffffffffffffffffffff021916908373ffffffffffffffffffffffffffffffffffffffff1602179055505b60006118d661231f565b905080600760008473ffffffffffffffffffffffffffffffffffffffff1673ffffffffffffffffffffffffffffffffffffffff1681526020019081526020016000208054905010611a17576001600460008473ffffffffffffffffffffffffffffffffffffffff1673ffffffffffffffffffffffffffffffffffffffff16815260200190815260200160002060000160006101000a81548160ff021916908315150217905550600760008373ffffffffffffffffffffffffffffffffffffffff1673ffffffffffffffffffffffffffffffffffffffff16815260200190815260200160002060006119c79190612b86565b600260008154809291906119da906138d2565b91905055507f89a6354fb229eda6cbc28306798727b4d524818d2c375220bc3f360f24cffaca82604051611a0e9190612f82565b60405180910390a15b505b50565b8460ff16600a60003373ffffffffffffffffffffffffffffffffffffffff1673ffffffffffffffffffffffffffffffffffffffff168152602001908152602001600020600101600060038110611a7557611a7461391a565b5b602091828204019190069054906101000a900460ff1660ff161480611b0957508460ff16600a60003373ffffffffffffffffffffffffffffffffffffffff1673ffffffffffffffffffffffffffffffffffffffff168152602001908152602001600020600101600160038110611aee57611aed61391a565b5b602091828204019190069054906101000a900460ff1660ff16145b80611b8357508460ff16600a60003373ffffffffffffffffffffffffffffffffffffffff1673ffffffffffffffffffffffffffffffffffffffff168152602001908152602001600020600101600260038110611b6857611b6761391a565b5b602091828204019190069054906101000a900460ff1660ff16145b611bc2576040517f08c379a0000000000000000000000000000000000000000000000000000000008152600401611bb990613a4d565b60405180910390fd5b600085858585604051602001611bdb9493929190613b14565b604051602081830303815290604052805190602001209050600b600082815260200190815260200160002060000160149054906101000a900460ff16611c56576040517f08c379a0000000000000000000000000000000000000000000000000000000008152600401611c4d90613bd0565b60405180910390fd5b600b600082815260200190815260200160002060010160008360ff1660ff168152602001908152602001600020339080600181540180825580915050600190039060005260206000200160009091909190916101000a81548173ffffffffffffffffffffffffffffffffffffffff021916908373ffffffffffffffffffffffffffffffffffffffff1602179055507f43c853095c2752648493c88b4baac4d580d2594ffb00c6f1d4242d844514f78385858585604051611d199493929190613c29565b60405180910390a16003600b600083815260200190815260200160002060010160008460ff1660ff1681526020019081526020016000208054905010611da3577fe23f5229de535c091e3b7bec2665f5d698192d3b31393066e8987b7a05076b6c85858585604051611d8e9493929190613c29565b60405180910390a1611da285858585612909565b5b505050505050565b6000600660003373ffffffffffffffffffffffffffffffffffffffff1673ffffffffffffffffffffffffffffffffffffffff16815260200190815260200160002054905060008111611e32576040517f08c379a0000000000000000000000000000000000000000000000000000000008152600401611e2990613cc1565b60405180910390fd5b6000600660003373ffffffffffffffffffffffffffffffffffffffff1673ffffffffffffffffffffffffffffffffffffffff168152602001908152602001600020819055503373ffffffffffffffffffffffffffffffffffffffff166108fc829081150290604051600060405180830381858888f19350505050158015611ebd573d6000803e3d6000fd5b507f030a01aa653934ffdaf64d8bd90e1bae0c5dc0f14137194d7148d427431c33283382604051611eef929190613ce1565b60405180910390a150565b600080600080600080600860008881526020019081526020016000206040518060a0016040529081600082015481526020016001820160009054906101000a900460ff161515151581526020016001820160019054906101000a900460ff1660ff1660ff168152602001600282015481526020016003820160009054906101000a900473ffffffffffffffffffffffffffffffffffffffff1673ffffffffffffffffffffffffffffffffffffffff1673ffffffffffffffffffffffffffffffffffffffff1681525050905080600001518160200151826040015183606001518460800151955095509550955095505091939590929450565b6008600082815260200190815260200160002060010160009054906101000a900460ff16612055576040517f08c379a000000000000000000000000000000000000000000000000000000000815260040161204c90613618565b60405180910390fd5b601460ff166008600083815260200190815260200160002060010160019054906101000a900460ff1660ff16146120c1576040517f08c379a00000000000000000000000000000000000000000000000000000000081526004016120b890613d7c565b60405180910390fd5b60005b600560008381526020019081526020016000208054905081101561230b57600080612132609660ff166005600087815260200190815260200160002085815481106121125761211161391a565b5b90600052602060002090600202016001015461290f90919063ffffffff16565b9150915081612176576040517f08c379a000000000000000000000000000000000000000000000000000000000815260040161216d90613de8565b60405180910390fd5b60008061218d60648461296290919063ffffffff16565b91509150816121d1576040517f08c379a00000000000000000000000000000000000000000000000000000000081526004016121c890613e54565b60405180910390fd5b8060066000600560008a815260200190815260200160002088815481106121fb576121fa61391a565b5b906000526020600020906002020160000160009054906101000a900473ffffffffffffffffffffffffffffffffffffffff1673ffffffffffffffffffffffffffffffffffffffff1673ffffffffffffffffffffffffffffffffffffffff168152602001908152602001600020819055507f387e531539117ffbbc64346498e91d0916d1cf52ac62a797e1102d5a400cb6326005600088815260200190815260200160002086815481106122b1576122b061391a565b5b906000526020600020906002020160000160009054906101000a900473ffffffffffffffffffffffffffffffffffffffff16826040516122f2929190613ce1565b60405180910390a15050505080806001019150506120c4565b5050565b6000670de0b6b3a7640000905090565b6000600460ff166002541161233757600190506123fa565b600080612353603260ff1660025461290f90919063ffffffff16565b9150915081612397576040517f08c379a000000000000000000000000000000000000000000000000000000000815260040161238e90613de8565b60405180910390fd5b6000806123ae60648461296290919063ffffffff16565b91509150816123f2576040517f08c379a00000000000000000000000000000000000000000000000000000000081526004016123e990613e54565b60405180910390fd5b809450505050505b90565b612405612669565b600073ffffffffffffffffffffffffffffffffffffffff168173ffffffffffffffffffffffffffffffffffffffff16036124775760006040517f1e4fbdf700000000000000000000000000000000000000000000000000000000815260040161246e9190612f82565b60405180910390fd5b612480816127b5565b50565b61248b612b46565b612493612b46565b61249c83612998565b816000600381106124b0576124af61391a565b5b602002019060ff16908160ff1681525050806000600381106124d5576124d461391a565b5b6020020151816001600381106124ee576124ed61391a565b5b602002019060ff16908160ff16815250505b806000600381106125145761251361391a565b5b602002015160ff16816001600381106125305761252f61391a565b5b602002015160ff16036125705761254683612998565b8160016003811061255a5761255961391a565b5b602002019060ff16908160ff1681525050612500565b806001600381106125845761258361391a565b5b60200201518160026003811061259d5761259c61391a565b5b602002019060ff16908160ff16815250505b806000600381106125c3576125c261391a565b5b602002015160ff16816002600381106125df576125de61391a565b5b602002015160ff1614806126285750806001600381106126025761260161391a565b5b602002015160ff168160026003811061261e5761261d61391a565b5b602002015160ff16145b156126605761263683612998565b8160026003811061264a5761264961391a565b5b602002019060ff16908160ff16815250506125af565b80915050919050565b612671612a64565b73ffffffffffffffffffffffffffffffffffffffff1661268f611022565b73ffffffffffffffffffffffffffffffffffffffff16146126ee576126b2612a64565b6040517f118cdaa70000000000000000000000000000000000000000000000000000000081526004016126e59190612f82565b60405180910390fd5b565b6126f86128bf565b6001600060146101000a81548160ff0219169083151502179055507f62e78cea01bee320cd4e420270b5ea74000d11b0c9f74754ebdbfc544b05a25861273c612a64565b6040516127499190612f82565b60405180910390a1565b61275b612a6c565b60008060146101000a81548160ff0219169083151502179055507f5db9ee0a495bf2e6ff9c91a7834c1ba4fdd244a5e8aa4e537bd38aeae4b073aa61279e612a64565b6040516127ab9190612f82565b60405180910390a1565b60008060009054906101000a900473ffffffffffffffffffffffffffffffffffffffff169050816000806101000a81548173ffffffffffffffffffffffffffffffffffffffff021916908373ffffffffffffffffffffffffffffffffffffffff1602179055508173ffffffffffffffffffffffffffffffffffffffff168173ffffffffffffffffffffffffffffffffffffffff167f8be0079c531659141344cd1fd0a4f28419497f9722a3daafe3b4186f6b6457e060405160405180910390a35050565b6002600154036128b5576040517f3ee5aeb500000000000000000000000000000000000000000000000000000000815260040160405180910390fd5b6002600181905550565b6128c7610c78565b156128fe576040517fd93c066500000000000000000000000000000000000000000000000000000000815260040160405180910390fd5b565b60018081905550565b50505050565b6000806000840361292757600160009150915061295b565b600083850290508385828161293f5761293e613e74565b5b041461295257600080925092505061295b565b60018192509250505b9250929050565b600080600083036129795760008091509150612991565b600183858161298b5761298a613e74565b5b04915091505b9250929050565b600080600a905060008160ff166009600081819054906101000a900460ff16809291906129c490613ea3565b91906101000a81548160ff021916908360ff16021790555060ff16436129ea9190613ecc565b40856040516020016129fd929190613f21565b6040516020818303038152906040528051906020012060001c612a209190613f4d565b905060fa600960009054906101000a900460ff1660ff161115612a5a576000600960006101000a81548160ff021916908360ff1602179055505b8092505050919050565b600033905090565b612a74610c78565b612aaa576040517f8dfc202b00000000000000000000000000000000000000000000000000000000815260040160405180910390fd5b565b826003601f01602090048101928215612b355791602002820160005b83821115612b0657835183826101000a81548160ff021916908360ff1602179055509260200192600101602081600001049283019260010302612ac8565b8015612b335782816101000a81549060ff0219169055600101602081600001049283019260010302612b06565b505b509050612b429190612ba7565b5090565b6040518060600160405280600390602082028036833780820191505090505090565b60405180604001604052806000151581526020016000151581525090565b5080546000825590600052602060002090810190612ba49190612ba7565b50565b5b80821115612bc0576000816000905550600101612ba8565b5090565b6000604051905090565b600080fd5b600080fd5b600073ffffffffffffffffffffffffffffffffffffffff82169050919050565b6000612c0382612bd8565b9050919050565b612c1381612bf8565b8114612c1e57600080fd5b50565b600081359050612c3081612c0a565b92915050565b600060208284031215612c4c57612c4b612bce565b5b6000612c5a84828501612c21565b91505092915050565b6000819050919050565b612c7681612c63565b82525050565b6000602082019050612c916000830184612c6d565b92915050565b612ca081612c63565b8114612cab57600080fd5b50565b600081359050612cbd81612c97565b92915050565b600080600060608486031215612cdc57612cdb612bce565b5b6000612cea86828701612cae565b9350506020612cfb86828701612c21565b9250506040612d0c86828701612cae565b9150509250925092565b60008115159050919050565b612d2b81612d16565b8114612d3657600080fd5b50565b600081359050612d4881612d22565b92915050565b600060208284031215612d6457612d63612bce565b5b6000612d7284828501612d39565b91505092915050565b6000819050919050565b612d8e81612d7b565b8114612d9957600080fd5b50565b600081359050612dab81612d85565b92915050565b600060ff82169050919050565b612dc781612db1565b8114612dd257600080fd5b50565b600081359050612de481612dbe565b92915050565b60008060408385031215612e0157612e00612bce565b5b6000612e0f85828601612d9c565b9250506020612e2085828601612dd5565b9150509250929050565b612e3381612d16565b82525050565b6000602082019050612e4e6000830184612e2a565b92915050565b600060039050919050565b600081905092915050565b6000819050919050565b612e7d81612db1565b82525050565b6000612e8f8383612e74565b60208301905092915050565b6000602082019050919050565b612eb181612e54565b612ebb8184612e5f565b9250612ec682612e6a565b8060005b83811015612ef7578151612ede8782612e83565b9650612ee983612e9b565b925050600181019050612eca565b505050505050565b6000606082019050612f146000830184612ea8565b92915050565b612f2381612d16565b82525050565b604082016000820151612f3f6000850182612f1a565b506020820151612f526020850182612f1a565b50505050565b6000604082019050612f6d6000830184612f29565b92915050565b612f7c81612bf8565b82525050565b6000602082019050612f976000830184612f73565b92915050565b600060208284031215612fb357612fb2612bce565b5b6000612fc184828501612d9c565b91505092915050565b600080fd5b600080fd5b6000601f19601f8301169050919050565b7f4e487b7100000000000000000000000000000000000000000000000000000000600052604160045260246000fd5b61301d82612fd4565b810181811067ffffffffffffffff8211171561303c5761303b612fe5565b5b80604052505050565b600061304f612bc4565b905061305b8282613014565b919050565b600067ffffffffffffffff82111561307b5761307a612fe5565b5b61308482612fd4565b9050602081019050919050565b82818337600083830152505050565b60006130b36130ae84613060565b613045565b9050828152602081018484840111156130cf576130ce612fcf565b5b6130da848285613091565b509392505050565b600082601f8301126130f7576130f6612fca565b5b81356131078482602086016130a0565b91505092915050565b600080600080600060a0868803121561312c5761312b612bce565b5b600061313a88828901612dd5565b955050602061314b88828901612c21565b945050604086013567ffffffffffffffff81111561316c5761316b612bd3565b5b613178888289016130e2565b935050606061318988828901612cae565b925050608061319a88828901612dd5565b9150509295509295909350565b6131b081612db1565b82525050565b600060a0820190506131cb6000830188612c6d565b6131d86020830187612e2a565b6131e560408301866131a7565b6131f26060830185612c6d565b6131ff6080830184612f73565b9695505050505050565b600082825260208201905092915050565b7f43616c6c6572206973206e6f7420612072656769737465726564206169726c6960008201527f6e652e0000000000000000000000000000000000000000000000000000000000602082015250565b6000613276602383613209565b91506132818261321a565b604082019050919050565b600060208201905081810360008301526132a581613269565b9050919050565b60008160601b9050919050565b60006132c4826132ac565b9050919050565b60006132d6826132b9565b9050919050565b6132ee6132e982612bf8565b6132cb565b82525050565b6000819050919050565b61330f61330a82612c63565b6132f4565b82525050565b600061332182866132dd565b60148201915061333182856132fe565b60208201915061334182846132fe565b602082019150819050949350505050565b61335b81612d7b565b82525050565b60006040820190506133766000830185613352565b61338360208301846131a7565b9392505050565b7f526567697374726174696f6e2066656520697320726571756972656400000000600082015250565b60006133c0601c83613209565b91506133cb8261338a565b602082019050919050565b600060208201905081810360008301526133ef816133b3565b9050919050565b7f4f7261636c6520697320616c7265616479207265676973746572656400000000600082015250565b600061342c601c83613209565b9150613437826133f6565b602082019050919050565b6000602082019050818103600083015261345b8161341f565b9050919050565b7f436f6e747261637420697320616c726561647920696e2074686520737461746560008201527f207265717565737465642e000000000000000000000000000000000000000000602082015250565b60006134be602b83613209565b91506134c982613462565b604082019050919050565b600060208201905081810360008301526134ed816134b1565b9050919050565b7f4169726c696e65206973206e6f7420726567697374657265642e000000000000600082015250565b600061352a601a83613209565b9150613535826134f4565b602082019050919050565b600060208201905081810360008301526135598161351d565b9050919050565b7f4169726c696e65206973206e6f742066756e6465642e00000000000000000000600082015250565b6000613596601683613209565b91506135a182613560565b602082019050919050565b600060208201905081810360008301526135c581613589565b9050919050565b7f466c69676874206973206e6f7420726567697374657265642e00000000000000600082015250565b6000613602601983613209565b915061360d826135cc565b602082019050919050565b60006020820190508181036000830152613631816135f5565b9050919050565b7f4e6f74207265676973746572656420617320616e206f7261636c650000000000600082015250565b600061366e601b83613209565b915061367982613638565b602082019050919050565b6000602082019050818103600083015261369d81613661565b9050919050565b7f496e737572616e636520616d6f756e74206d757374206265206c65737320746860008201527f616e206f7220657175616c20746f20746865206c696d69742e00000000000000602082015250565b6000613700603983613209565b915061370b826136a4565b604082019050919050565b6000602082019050818103600083015261372f816136f3565b9050919050565b600060408201905061374b6000830185612f73565b6137586020830184613352565b9392505050565b7f4169726c696e6520697320616c72656164792066756e6465642e000000000000600082015250565b6000613795601a83613209565b91506137a08261375f565b602082019050919050565b600060208201905081810360008301526137c481613788565b9050919050565b7f496e73756666696369656e742066756e64696e6720616d6f756e742e00000000600082015250565b6000613801601c83613209565b915061380c826137cb565b602082019050919050565b60006020820190508181036000830152613830816137f4565b9050919050565b7f4169726c696e6520697320616c726561647920726567697374657265642e0000600082015250565b600061386d601e83613209565b915061387882613837565b602082019050919050565b6000602082019050818103600083015261389c81613860565b9050919050565b7f4e487b7100000000000000000000000000000000000000000000000000000000600052601160045260246000fd5b60006138dd82612c63565b91507fffffffffffffffffffffffffffffffffffffffffffffffffffffffffffffffff820361390f5761390e6138a3565b5b600182019050919050565b7f4e487b7100000000000000000000000000000000000000000000000000000000600052603260045260246000fd5b7f596f7527766520616c726561647920766f74656420666f72207468697320616960008201527f726c696e652e0000000000000000000000000000000000000000000000000000602082015250565b60006139a5602683613209565b91506139b082613949565b604082019050919050565b600060208201905081810360008301526139d481613998565b9050919050565b7f496e64657820646f6573206e6f74206d61746368206f7261636c65207265717560008201527f6573740000000000000000000000000000000000000000000000000000000000602082015250565b6000613a37602383613209565b9150613a42826139db565b604082019050919050565b60006020820190508181036000830152613a6681613a2a565b9050919050565b60008160f81b9050919050565b6000613a8582613a6d565b9050919050565b613a9d613a9882612db1565b613a7a565b82525050565b600081519050919050565b600081905092915050565b60005b83811015613ad7578082015181840152602081019050613abc565b60008484015250505050565b6000613aee82613aa3565b613af88185613aae565b9350613b08818560208601613ab9565b80840191505092915050565b6000613b208287613a8c565b600182019150613b3082866132dd565b601482019150613b408285613ae3565b9150613b4c82846132fe565b60208201915081905095945050505050565b7f466c69676874206f722074696d657374616d7020646f206e6f74206d6174636860008201527f206f7261636c6520726571756573740000000000000000000000000000000000602082015250565b6000613bba602f83613209565b9150613bc582613b5e565b604082019050919050565b60006020820190508181036000830152613be981613bad565b9050919050565b6000613bfb82613aa3565b613c058185613209565b9350613c15818560208601613ab9565b613c1e81612fd4565b840191505092915050565b6000608082019050613c3e6000830187612f73565b8181036020830152613c508186613bf0565b9050613c5f6040830185612c6d565b613c6c60608301846131a7565b95945050505050565b7f4e6f2063726564697420746f2077697468647261772e00000000000000000000600082015250565b6000613cab601683613209565b9150613cb682613c75565b602082019050919050565b60006020820190508181036000830152613cda81613c9e565b9050919050565b6000604082019050613cf66000830185612f73565b613d036020830184612c6d565b9392505050565b7f466c69676874206973206e6f742064656c617965642064756520746f2074686560008201527f206169726c696e652e0000000000000000000000000000000000000000000000602082015250565b6000613d66602983613209565b9150613d7182613d0a565b604082019050919050565b60006020820190508181036000830152613d9581613d59565b9050919050565b7f4d756c7469706c69636174696f6e206f766572666c6f772e0000000000000000600082015250565b6000613dd2601883613209565b9150613ddd82613d9c565b602082019050919050565b60006020820190508181036000830152613e0181613dc5565b9050919050565b7f4469766973696f6e206f766572666c6f772e0000000000000000000000000000600082015250565b6000613e3e601283613209565b9150613e4982613e08565b602082019050919050565b60006020820190508181036000830152613e6d81613e31565b9050919050565b7f4e487b7100000000000000000000000000000000000000000000000000000000600052601260045260246000fd5b6000613eae82612db1565b915060ff8203613ec157613ec06138a3565b5b600182019050919050565b6000613ed782612c63565b9150613ee283612c63565b9250828203905081811115613efa57613ef96138a3565b5b92915050565b6000819050919050565b613f1b613f1682612d7b565b613f00565b82525050565b6000613f2d8285613f0a565b602082019150613f3d82846132dd565b6014820191508190509392505050565b6000613f5882612c63565b9150613f6383612c63565b925082613f7357613f72613e74565b5b82820690509291505056fea2646970667358221220fc5c40c29b84e235c3bbe347a4736583ef85d110cac59b9f9d6f9a9c1c67085c64736f6c63430008180033",
  "linkReferences": {},
  "deployedLinkReferences": {}
}